{
  "_format": "hh-sol-artifact-1",
  "contractName": "CrowdFunding",
  "sourceName": "contracts/CrowdFunding.sol",
  "abi": [
    {
      "inputs": [
        {
          "internalType": "uint256",
          "name": "",
          "type": "uint256"
        }
      ],
      "name": "campaigns",
      "outputs": [
        {
          "internalType": "address",
          "name": "owner",
          "type": "address"
        },
        {
          "internalType": "string",
          "name": "title",
          "type": "string"
        },
        {
          "internalType": "string",
          "name": "description",
          "type": "string"
        },
        {
          "internalType": "uint256",
          "name": "target",
          "type": "uint256"
        },
        {
          "internalType": "uint256",
          "name": "deadline",
          "type": "uint256"
        },
        {
          "internalType": "uint256",
          "name": "amountCollected",
          "type": "uint256"
        },
        {
          "internalType": "string",
          "name": "image",
          "type": "string"
        }
      ],
      "stateMutability": "view",
      "type": "function"
    },
    {
      "inputs": [
        {
          "internalType": "address",
          "name": "_owner",
          "type": "address"
        },
        {
          "internalType": "string",
          "name": "_title",
          "type": "string"
        },
        {
          "internalType": "string",
          "name": "_description",
          "type": "string"
        },
        {
          "internalType": "uint256",
          "name": "_target",
          "type": "uint256"
        },
        {
          "internalType": "uint256",
          "name": "_deadline",
          "type": "uint256"
        },
        {
          "internalType": "string",
          "name": "_image",
          "type": "string"
        }
      ],
      "name": "createCampaign",
      "outputs": [
        {
          "internalType": "uint256",
          "name": "",
          "type": "uint256"
        }
      ],
      "stateMutability": "nonpayable",
      "type": "function"
    },
    {
      "inputs": [
        {
          "internalType": "uint256",
          "name": "_id",
          "type": "uint256"
        }
      ],
      "name": "donateToCampaign",
      "outputs": [],
      "stateMutability": "payable",
      "type": "function"
    },
    {
      "inputs": [],
      "name": "getCampaigns",
      "outputs": [
        {
          "components": [
            {
              "internalType": "address",
              "name": "owner",
              "type": "address"
            },
            {
              "internalType": "string",
              "name": "title",
              "type": "string"
            },
            {
              "internalType": "string",
              "name": "description",
              "type": "string"
            },
            {
              "internalType": "uint256",
              "name": "target",
              "type": "uint256"
            },
            {
              "internalType": "uint256",
              "name": "deadline",
              "type": "uint256"
            },
            {
              "internalType": "uint256",
              "name": "amountCollected",
              "type": "uint256"
            },
            {
              "internalType": "string",
              "name": "image",
              "type": "string"
            },
            {
              "internalType": "address[]",
              "name": "donators",
              "type": "address[]"
            },
            {
              "internalType": "uint256[]",
              "name": "donations",
              "type": "uint256[]"
            }
          ],
          "internalType": "struct CrowdFunding.Campaign[]",
          "name": "",
          "type": "tuple[]"
        }
      ],
      "stateMutability": "view",
      "type": "function"
    },
    {
      "inputs": [
        {
          "internalType": "uint256",
          "name": "_id",
          "type": "uint256"
        }
      ],
      "name": "getDonators",
      "outputs": [
        {
          "internalType": "address[]",
          "name": "",
          "type": "address[]"
        },
        {
          "internalType": "uint256[]",
          "name": "",
          "type": "uint256[]"
        }
      ],
      "stateMutability": "view",
      "type": "function"
    },
    {
      "inputs": [],
      "name": "numberOfCampaigns",
      "outputs": [
        {
          "internalType": "uint256",
          "name": "",
          "type": "uint256"
        }
      ],
      "stateMutability": "view",
      "type": "function"
    }
  ],
  "bytecode": "0x6080604052600060015534801561001557600080fd5b50610f72806100256000396000f3fe6080604052600436106100555760003560e01c806307ca140d1461005a5780630fa91fa914610083578063141961bc146100b157806342a4fda8146100e45780639943e3a1146100f9578063a6b0363314610119575b600080fd5b34801561006657600080fd5b5061007060015481565b6040519081526020015b60405180910390f35b34801561008f57600080fd5b506100a361009e366004610a60565b61013b565b60405161007a929190610a79565b3480156100bd57600080fd5b506100d16100cc366004610a60565b61020a565b60405161007a9796959493929190610b4a565b6100f76100f2366004610a60565b6103e7565b005b34801561010557600080fd5b50610070610114366004610c57565b610506565b34801561012557600080fd5b5061012e61061a565b60405161007a9190610d84565b600081815260208181526040918290206007810180548451818502810185019095528085526060948594929360080192909184918301828280156101a857602002820191906000526020600020905b81546001600160a01b0316815260019091019060200180831161018a575b50505050509150808054806020026020016040519081016040528092919081815260200182805480156101fa57602002820191906000526020600020905b8154815260200190600101908083116101e6575b5050505050905091509150915091565b600060208190529081526040902080546001820180546001600160a01b03909216929161023690610e91565b80601f016020809104026020016040519081016040528092919081815260200182805461026290610e91565b80156102af5780601f10610284576101008083540402835291602001916102af565b820191906000526020600020905b81548152906001019060200180831161029257829003601f168201915b5050505050908060020180546102c490610e91565b80601f01602080910402602001604051908101604052809291908181526020018280546102f090610e91565b801561033d5780601f106103125761010080835404028352916020019161033d565b820191906000526020600020905b81548152906001019060200180831161032057829003601f168201915b50505050509080600301549080600401549080600501549080600601805461036490610e91565b80601f016020809104026020016040519081016040528092919081815260200182805461039090610e91565b80156103dd5780601f106103b2576101008083540402835291602001916103dd565b820191906000526020600020905b8154815290600101906020018083116103c057829003601f168201915b5050505050905087565b6000818152602081905260409020600481015442111561044e5760405162461bcd60e51b815260206004820152601d60248201527f43616d706169676e20646561646c696e6520686173207061737365642e00000060448201526064015b60405180910390fd5b600781018054600180820183556000928352602080842090920180546001600160a01b031916331790556008840180549182018155835290822034910181905582546040516001600160a01b0390911691908381818185875af1925050503d80600081146104d8576040519150601f19603f3d011682016040523d82523d6000602084013e6104dd565b606091505b50509050801561050157348260050160008282546104fb9190610edc565b90915550505b505050565b600154600090815260208190526040812042841161057b5760405162461bcd60e51b815260206004820152602c60248201527f54686520646561646c696e652073686f756c642062652061206461746520696e60448201526b103a343290333aba3ab9329760a11b6064820152608401610445565b80546001600160a01b0319166001600160a01b03891617815586516105a990600183019060208a01906109c7565b5085516105bf90600283019060208901906109c7565b5060038101859055600481018490556000600582015582516105ea90600683019060208601906109c7565b50600180549060006105fb83610ef4565b91905055506001805461060e9190610f0f565b98975050505050505050565b6060600060015467ffffffffffffffff81111561063957610639610bb4565b6040519080825280602002602001820160405280156106c257816020015b6106af60405180610120016040528060006001600160a01b0316815260200160608152602001606081526020016000815260200160008152602001600081526020016060815260200160608152602001606081525090565b8152602001906001900390816106575790505b50905060005b6001548110156109c157600081815260208181526040918290208251610120810190935280546001600160a01b031683526001810180549193928492908401919061071290610e91565b80601f016020809104026020016040519081016040528092919081815260200182805461073e90610e91565b801561078b5780601f106107605761010080835404028352916020019161078b565b820191906000526020600020905b81548152906001019060200180831161076e57829003601f168201915b505050505081526020016002820180546107a490610e91565b80601f01602080910402602001604051908101604052809291908181526020018280546107d090610e91565b801561081d5780601f106107f25761010080835404028352916020019161081d565b820191906000526020600020905b81548152906001019060200180831161080057829003601f168201915b5050505050815260200160038201548152602001600482015481526020016005820154815260200160068201805461085490610e91565b80601f016020809104026020016040519081016040528092919081815260200182805461088090610e91565b80156108cd5780601f106108a2576101008083540402835291602001916108cd565b820191906000526020600020905b8154815290600101906020018083116108b057829003601f168201915b505050505081526020016007820180548060200260200160405190810160405280929190818152602001828054801561092f57602002820191906000526020600020905b81546001600160a01b03168152600190910190602001808311610911575b505050505081526020016008820180548060200260200160405190810160405280929190818152602001828054801561098757602002820191906000526020600020905b815481526020019060010190808311610973575b5050505050815250508383815181106109a2576109a2610f26565b60200260200101819052505080806109b990610ef4565b9150506106c8565b50919050565b8280546109d390610e91565b90600052602060002090601f0160209004810192826109f55760008555610a3b565b82601f10610a0e57805160ff1916838001178555610a3b565b82800160010185558215610a3b579182015b82811115610a3b578251825591602001919060010190610a20565b50610a47929150610a4b565b5090565b5b80821115610a475760008155600101610a4c565b600060208284031215610a7257600080fd5b5035919050565b604080825283519082018190526000906020906060840190828701845b82811015610abb5781516001600160a01b031684529284019290840190600101610a96565b5050508381038285015284518082528583019183019060005b81811015610af057835183529284019291840191600101610ad4565b5090979650505050505050565b6000815180845260005b81811015610b2357602081850181015186830182015201610b07565b81811115610b35576000602083870101525b50601f01601f19169290920160200192915050565b6001600160a01b038816815260e060208201819052600090610b6e90830189610afd565b8281036040840152610b808189610afd565b90508660608401528560808401528460a084015282810360c0840152610ba68185610afd565b9a9950505050505050505050565b634e487b7160e01b600052604160045260246000fd5b600082601f830112610bdb57600080fd5b813567ffffffffffffffff80821115610bf657610bf6610bb4565b604051601f8301601f19908116603f01168101908282118183101715610c1e57610c1e610bb4565b81604052838152866020858801011115610c3757600080fd5b836020870160208301376000602085830101528094505050505092915050565b60008060008060008060c08789031215610c7057600080fd5b86356001600160a01b0381168114610c8757600080fd5b9550602087013567ffffffffffffffff80821115610ca457600080fd5b610cb08a838b01610bca565b96506040890135915080821115610cc657600080fd5b610cd28a838b01610bca565b9550606089013594506080890135935060a0890135915080821115610cf657600080fd5b50610d0389828a01610bca565b9150509295509295509295565b600081518084526020808501945080840160005b83811015610d495781516001600160a01b031687529582019590820190600101610d24565b509495945050505050565b600081518084526020808501945080840160005b83811015610d4957815187529582019590820190600101610d68565b60006020808301818452808551808352604092508286019150828160051b87010184880160005b83811015610e8357888303603f19018552815180516001600160a01b0316845261012088820151818a870152610de382870182610afd565b9150508782015185820389870152610dfb8282610afd565b606084810151908801526080808501519088015260a0808501519088015260c080850151888303828a01529193509150610e358382610afd565b9250505060e08083015186830382880152610e508382610d10565b925050506101008083015192508582038187015250610e6f8183610d54565b968901969450505090860190600101610dab565b509098975050505050505050565b600181811c90821680610ea557607f821691505b602082108114156109c157634e487b7160e01b600052602260045260246000fd5b634e487b7160e01b600052601160045260246000fd5b60008219821115610eef57610eef610ec6565b500190565b6000600019821415610f0857610f08610ec6565b5060010190565b600082821015610f2157610f21610ec6565b500390565b634e487b7160e01b600052603260045260246000fdfea26469706673582212201367da79d97c2a3d3eacef80c8d357dc1b557f8c6367d8cd4feb8b4f8cc988cc64736f6c63430008090033",
  "linkReferences": {},
  "deployedLinkReferences": {}
}