{
  "_format": "hh-sol-artifact-1",
  "contractName": "Decentratwitter",
  "sourceName": "contracts/Decentratwitter.sol",
  "abi": [
    {
      "inputs": [],
      "stateMutability": "nonpayable",
      "type": "constructor"
    },
    {
      "anonymous": false,
      "inputs": [
        {
          "indexed": true,
          "internalType": "address",
          "name": "owner",
          "type": "address"
        },
        {
          "indexed": true,
          "internalType": "address",
          "name": "approved",
          "type": "address"
        },
        {
          "indexed": true,
          "internalType": "uint256",
          "name": "tokenId",
          "type": "uint256"
        }
      ],
      "name": "Approval",
      "type": "event"
    },
    {
      "anonymous": false,
      "inputs": [
        {
          "indexed": true,
          "internalType": "address",
          "name": "owner",
          "type": "address"
        },
        {
          "indexed": true,
          "internalType": "address",
          "name": "operator",
          "type": "address"
        },
        {
          "indexed": false,
          "internalType": "bool",
          "name": "approved",
          "type": "bool"
        }
      ],
      "name": "ApprovalForAll",
      "type": "event"
    },
    {
      "anonymous": false,
      "inputs": [
        {
          "indexed": false,
          "internalType": "uint256",
          "name": "postId",
          "type": "uint256"
        },
        {
          "indexed": false,
          "internalType": "uint256",
          "name": "commentId",
          "type": "uint256"
        },
        {
          "indexed": false,
          "internalType": "string",
          "name": "hash",
          "type": "string"
        },
        {
          "indexed": false,
          "internalType": "address payable",
          "name": "author",
          "type": "address"
        },
        {
          "indexed": false,
          "internalType": "uint256",
          "name": "timestamp",
          "type": "uint256"
        }
      ],
      "name": "CommentCreated",
      "type": "event"
    },
    {
      "anonymous": false,
      "inputs": [
        {
          "indexed": false,
          "internalType": "uint256",
          "name": "postId",
          "type": "uint256"
        },
        {
          "indexed": false,
          "internalType": "uint256",
          "name": "commentId",
          "type": "uint256"
        },
        {
          "indexed": false,
          "internalType": "address payable",
          "name": "author",
          "type": "address"
        }
      ],
      "name": "CommentDeleted",
      "type": "event"
    },
    {
      "anonymous": false,
      "inputs": [
        {
          "indexed": false,
          "internalType": "uint256",
          "name": "postId",
          "type": "uint256"
        },
        {
          "indexed": false,
          "internalType": "uint256",
          "name": "commentId",
          "type": "uint256"
        },
        {
          "indexed": false,
          "internalType": "string",
          "name": "hash",
          "type": "string"
        },
        {
          "indexed": false,
          "internalType": "address payable",
          "name": "author",
          "type": "address"
        },
        {
          "indexed": false,
          "internalType": "uint256",
          "name": "timestamp",
          "type": "uint256"
        }
      ],
      "name": "CommentUpdated",
      "type": "event"
    },
    {
      "anonymous": false,
      "inputs": [
        {
          "indexed": false,
          "internalType": "uint256",
          "name": "id",
          "type": "uint256"
        },
        {
          "indexed": false,
          "internalType": "string",
          "name": "hash",
          "type": "string"
        },
        {
          "indexed": false,
          "internalType": "uint256",
          "name": "tipAmount",
          "type": "uint256"
        },
        {
          "indexed": false,
          "internalType": "address payable",
          "name": "author",
          "type": "address"
        }
      ],
      "name": "PostCreated",
      "type": "event"
    },
    {
      "anonymous": false,
      "inputs": [
        {
          "indexed": false,
          "internalType": "uint256",
          "name": "id",
          "type": "uint256"
        },
        {
          "indexed": false,
          "internalType": "address payable",
          "name": "author",
          "type": "address"
        }
      ],
      "name": "PostDeleted",
      "type": "event"
    },
    {
      "anonymous": false,
      "inputs": [
        {
          "indexed": false,
          "internalType": "uint256",
          "name": "id",
          "type": "uint256"
        },
        {
          "indexed": false,
          "internalType": "string",
          "name": "hash",
          "type": "string"
        },
        {
          "indexed": false,
          "internalType": "uint256",
          "name": "tipAmount",
          "type": "uint256"
        },
        {
          "indexed": false,
          "internalType": "address payable",
          "name": "author",
          "type": "address"
        }
      ],
      "name": "PostTipped",
      "type": "event"
    },
    {
      "anonymous": false,
      "inputs": [
        {
          "indexed": false,
          "internalType": "uint256",
          "name": "id",
          "type": "uint256"
        },
        {
          "indexed": false,
          "internalType": "string",
          "name": "hash",
          "type": "string"
        },
        {
          "indexed": false,
          "internalType": "address payable",
          "name": "author",
          "type": "address"
        }
      ],
      "name": "PostUpdated",
      "type": "event"
    },
    {
      "anonymous": false,
      "inputs": [
        {
          "indexed": false,
          "internalType": "uint256",
          "name": "postId",
          "type": "uint256"
        },
        {
          "indexed": false,
          "internalType": "address",
          "name": "user",
          "type": "address"
        },
        {
          "indexed": false,
          "internalType": "uint256",
          "name": "reactionCount",
          "type": "uint256"
        }
      ],
      "name": "ReactionAdded",
      "type": "event"
    },
    {
      "anonymous": false,
      "inputs": [
        {
          "indexed": false,
          "internalType": "uint256",
          "name": "postId",
          "type": "uint256"
        },
        {
          "indexed": false,
          "internalType": "address",
          "name": "user",
          "type": "address"
        },
        {
          "indexed": false,
          "internalType": "uint256",
          "name": "reactionCount",
          "type": "uint256"
        }
      ],
      "name": "ReactionRemoved",
      "type": "event"
    },
    {
      "anonymous": false,
      "inputs": [
        {
          "indexed": true,
          "internalType": "address",
          "name": "from",
          "type": "address"
        },
        {
          "indexed": true,
          "internalType": "address",
          "name": "to",
          "type": "address"
        },
        {
          "indexed": true,
          "internalType": "uint256",
          "name": "tokenId",
          "type": "uint256"
        }
      ],
      "name": "Transfer",
      "type": "event"
    },
    {
      "inputs": [
        {
          "internalType": "uint256",
          "name": "_postId",
          "type": "uint256"
        },
        {
          "internalType": "string",
          "name": "_commentHash",
          "type": "string"
        }
      ],
      "name": "addComment",
      "outputs": [],
      "stateMutability": "nonpayable",
      "type": "function"
    },
    {
      "inputs": [
        {
          "internalType": "address",
          "name": "to",
          "type": "address"
        },
        {
          "internalType": "uint256",
          "name": "tokenId",
          "type": "uint256"
        }
      ],
      "name": "approve",
      "outputs": [],
      "stateMutability": "nonpayable",
      "type": "function"
    },
    {
      "inputs": [
        {
          "internalType": "address",
          "name": "owner",
          "type": "address"
        }
      ],
      "name": "balanceOf",
      "outputs": [
        {
          "internalType": "uint256",
          "name": "",
          "type": "uint256"
        }
      ],
      "stateMutability": "view",
      "type": "function"
    },
    {
      "inputs": [
        {
          "internalType": "uint256",
          "name": "",
          "type": "uint256"
        }
      ],
      "name": "commentCounts",
      "outputs": [
        {
          "internalType": "uint256",
          "name": "",
          "type": "uint256"
        }
      ],
      "stateMutability": "view",
      "type": "function"
    },
    {
      "inputs": [
        {
          "internalType": "uint256",
          "name": "",
          "type": "uint256"
        },
        {
          "internalType": "uint256",
          "name": "",
          "type": "uint256"
        }
      ],
      "name": "commentExists",
      "outputs": [
        {
          "internalType": "bool",
          "name": "",
          "type": "bool"
        }
      ],
      "stateMutability": "view",
      "type": "function"
    },
    {
      "inputs": [
        {
          "internalType": "uint256",
          "name": "",
          "type": "uint256"
        },
        {
          "internalType": "uint256",
          "name": "",
          "type": "uint256"
        }
      ],
      "name": "comments",
      "outputs": [
        {
          "internalType": "uint256",
          "name": "id",
          "type": "uint256"
        },
        {
          "internalType": "string",
          "name": "hash",
          "type": "string"
        },
        {
          "internalType": "address payable",
          "name": "author",
          "type": "address"
        },
        {
          "internalType": "uint256",
          "name": "timestamp",
          "type": "uint256"
        }
      ],
      "stateMutability": "view",
      "type": "function"
    },
    {
      "inputs": [
        {
          "internalType": "uint256",
          "name": "_postId",
          "type": "uint256"
        },
        {
          "internalType": "uint256",
          "name": "_commentId",
          "type": "uint256"
        }
      ],
      "name": "deleteComment",
      "outputs": [],
      "stateMutability": "nonpayable",
      "type": "function"
    },
    {
      "inputs": [
        {
          "internalType": "uint256",
          "name": "_id",
          "type": "uint256"
        }
      ],
      "name": "deletePost",
      "outputs": [],
      "stateMutability": "nonpayable",
      "type": "function"
    },
    {
      "inputs": [
        {
          "internalType": "uint256",
          "name": "_postId",
          "type": "uint256"
        },
        {
          "internalType": "uint256",
          "name": "_commentId",
          "type": "uint256"
        },
        {
          "internalType": "string",
          "name": "_commentHash",
          "type": "string"
        }
      ],
      "name": "editComment",
      "outputs": [],
      "stateMutability": "nonpayable",
      "type": "function"
    },
    {
      "inputs": [
        {
          "internalType": "uint256",
          "name": "_id",
          "type": "uint256"
        },
        {
          "internalType": "string",
          "name": "_postHash",
          "type": "string"
        }
      ],
      "name": "editPost",
      "outputs": [],
      "stateMutability": "nonpayable",
      "type": "function"
    },
    {
      "inputs": [],
      "name": "getAllPosts",
      "outputs": [
        {
          "components": [
            {
              "internalType": "uint256",
              "name": "id",
              "type": "uint256"
            },
            {
              "internalType": "string",
              "name": "hash",
              "type": "string"
            },
            {
              "internalType": "uint256",
              "name": "tipAmount",
              "type": "uint256"
            },
            {
              "internalType": "address payable",
              "name": "author",
              "type": "address"
            },
            {
              "internalType": "bool",
              "name": "exists",
              "type": "bool"
            }
          ],
          "internalType": "struct Decentratwitter.Post[]",
          "name": "_posts",
          "type": "tuple[]"
        }
      ],
      "stateMutability": "view",
      "type": "function"
    },
    {
      "inputs": [
        {
          "internalType": "uint256",
          "name": "tokenId",
          "type": "uint256"
        }
      ],
      "name": "getApproved",
      "outputs": [
        {
          "internalType": "address",
          "name": "",
          "type": "address"
        }
      ],
      "stateMutability": "view",
      "type": "function"
    },
    {
      "inputs": [
        {
          "internalType": "uint256",
          "name": "_postId",
          "type": "uint256"
        }
      ],
      "name": "getComments",
      "outputs": [
        {
          "components": [
            {
              "internalType": "uint256",
              "name": "id",
              "type": "uint256"
            },
            {
              "internalType": "string",
              "name": "hash",
              "type": "string"
            },
            {
              "internalType": "address payable",
              "name": "author",
              "type": "address"
            },
            {
              "internalType": "uint256",
              "name": "timestamp",
              "type": "uint256"
            }
          ],
          "internalType": "struct Decentratwitter.Comment[]",
          "name": "_comments",
          "type": "tuple[]"
        }
      ],
      "stateMutability": "view",
      "type": "function"
    },
    {
      "inputs": [],
      "name": "getMyNfts",
      "outputs": [
        {
          "internalType": "uint256[]",
          "name": "_ids",
          "type": "uint256[]"
        }
      ],
      "stateMutability": "view",
      "type": "function"
    },
    {
      "inputs": [
        {
          "internalType": "uint256",
          "name": "_id",
          "type": "uint256"
        },
        {
          "internalType": "address",
          "name": "_user",
          "type": "address"
        }
      ],
      "name": "hasReacted",
      "outputs": [
        {
          "internalType": "bool",
          "name": "",
          "type": "bool"
        }
      ],
      "stateMutability": "view",
      "type": "function"
    },
    {
      "inputs": [
        {
          "internalType": "address",
          "name": "owner",
          "type": "address"
        },
        {
          "internalType": "address",
          "name": "operator",
          "type": "address"
        }
      ],
      "name": "isApprovedForAll",
      "outputs": [
        {
          "internalType": "bool",
          "name": "",
          "type": "bool"
        }
      ],
      "stateMutability": "view",
      "type": "function"
    },
    {
      "inputs": [
        {
          "internalType": "string",
          "name": "_tokenURI",
          "type": "string"
        }
      ],
      "name": "mint",
      "outputs": [
        {
          "internalType": "uint256",
          "name": "",
          "type": "uint256"
        }
      ],
      "stateMutability": "nonpayable",
      "type": "function"
    },
    {
      "inputs": [],
      "name": "name",
      "outputs": [
        {
          "internalType": "string",
          "name": "",
          "type": "string"
        }
      ],
      "stateMutability": "view",
      "type": "function"
    },
    {
      "inputs": [
        {
          "internalType": "uint256",
          "name": "tokenId",
          "type": "uint256"
        }
      ],
      "name": "ownerOf",
      "outputs": [
        {
          "internalType": "address",
          "name": "",
          "type": "address"
        }
      ],
      "stateMutability": "view",
      "type": "function"
    },
    {
      "inputs": [],
      "name": "postCount",
      "outputs": [
        {
          "internalType": "uint256",
          "name": "",
          "type": "uint256"
        }
      ],
      "stateMutability": "view",
      "type": "function"
    },
    {
      "inputs": [
        {
          "internalType": "uint256",
          "name": "",
          "type": "uint256"
        },
        {
          "internalType": "address",
          "name": "",
          "type": "address"
        }
      ],
      "name": "postReactions",
      "outputs": [
        {
          "internalType": "bool",
          "name": "",
          "type": "bool"
        }
      ],
      "stateMutability": "view",
      "type": "function"
    },
    {
      "inputs": [
        {
          "internalType": "uint256",
          "name": "",
          "type": "uint256"
        }
      ],
      "name": "posts",
      "outputs": [
        {
          "internalType": "uint256",
          "name": "id",
          "type": "uint256"
        },
        {
          "internalType": "string",
          "name": "hash",
          "type": "string"
        },
        {
          "internalType": "uint256",
          "name": "tipAmount",
          "type": "uint256"
        },
        {
          "internalType": "address payable",
          "name": "author",
          "type": "address"
        },
        {
          "internalType": "bool",
          "name": "exists",
          "type": "bool"
        }
      ],
      "stateMutability": "view",
      "type": "function"
    },
    {
      "inputs": [
        {
          "internalType": "address",
          "name": "",
          "type": "address"
        }
      ],
      "name": "profiles",
      "outputs": [
        {
          "internalType": "uint256",
          "name": "",
          "type": "uint256"
        }
      ],
      "stateMutability": "view",
      "type": "function"
    },
    {
      "inputs": [
        {
          "internalType": "uint256",
          "name": "",
          "type": "uint256"
        }
      ],
      "name": "reactionCounts",
      "outputs": [
        {
          "internalType": "uint256",
          "name": "",
          "type": "uint256"
        }
      ],
      "stateMutability": "view",
      "type": "function"
    },
    {
      "inputs": [
        {
          "internalType": "address",
          "name": "from",
          "type": "address"
        },
        {
          "internalType": "address",
          "name": "to",
          "type": "address"
        },
        {
          "internalType": "uint256",
          "name": "tokenId",
          "type": "uint256"
        }
      ],
      "name": "safeTransferFrom",
      "outputs": [],
      "stateMutability": "nonpayable",
      "type": "function"
    },
    {
      "inputs": [
        {
          "internalType": "address",
          "name": "from",
          "type": "address"
        },
        {
          "internalType": "address",
          "name": "to",
          "type": "address"
        },
        {
          "internalType": "uint256",
          "name": "tokenId",
          "type": "uint256"
        },
        {
          "internalType": "bytes",
          "name": "_data",
          "type": "bytes"
        }
      ],
      "name": "safeTransferFrom",
      "outputs": [],
      "stateMutability": "nonpayable",
      "type": "function"
    },
    {
      "inputs": [
        {
          "internalType": "address",
          "name": "operator",
          "type": "address"
        },
        {
          "internalType": "bool",
          "name": "approved",
          "type": "bool"
        }
      ],
      "name": "setApprovalForAll",
      "outputs": [],
      "stateMutability": "nonpayable",
      "type": "function"
    },
    {
      "inputs": [
        {
          "internalType": "uint256",
          "name": "_id",
          "type": "uint256"
        }
      ],
      "name": "setProfile",
      "outputs": [],
      "stateMutability": "nonpayable",
      "type": "function"
    },
    {
      "inputs": [
        {
          "internalType": "bytes4",
          "name": "interfaceId",
          "type": "bytes4"
        }
      ],
      "name": "supportsInterface",
      "outputs": [
        {
          "internalType": "bool",
          "name": "",
          "type": "bool"
        }
      ],
      "stateMutability": "view",
      "type": "function"
    },
    {
      "inputs": [],
      "name": "symbol",
      "outputs": [
        {
          "internalType": "string",
          "name": "",
          "type": "string"
        }
      ],
      "stateMutability": "view",
      "type": "function"
    },
    {
      "inputs": [
        {
          "internalType": "uint256",
          "name": "_id",
          "type": "uint256"
        }
      ],
      "name": "tipPostOwner",
      "outputs": [],
      "stateMutability": "payable",
      "type": "function"
    },
    {
      "inputs": [
        {
          "internalType": "uint256",
          "name": "_id",
          "type": "uint256"
        }
      ],
      "name": "toggleReaction",
      "outputs": [],
      "stateMutability": "nonpayable",
      "type": "function"
    },
    {
      "inputs": [],
      "name": "tokenCount",
      "outputs": [
        {
          "internalType": "uint256",
          "name": "",
          "type": "uint256"
        }
      ],
      "stateMutability": "view",
      "type": "function"
    },
    {
      "inputs": [
        {
          "internalType": "uint256",
          "name": "tokenId",
          "type": "uint256"
        }
      ],
      "name": "tokenURI",
      "outputs": [
        {
          "internalType": "string",
          "name": "",
          "type": "string"
        }
      ],
      "stateMutability": "view",
      "type": "function"
    },
    {
      "inputs": [
        {
          "internalType": "address",
          "name": "from",
          "type": "address"
        },
        {
          "internalType": "address",
          "name": "to",
          "type": "address"
        },
        {
          "internalType": "uint256",
          "name": "tokenId",
          "type": "uint256"
        }
      ],
      "name": "transferFrom",
      "outputs": [],
      "stateMutability": "nonpayable",
      "type": "function"
    },
    {
      "inputs": [
        {
          "internalType": "string",
          "name": "_postHash",
          "type": "string"
        }
      ],
      "name": "uploadPost",
      "outputs": [],
      "stateMutability": "nonpayable",
      "type": "function"
    }
  ],
  "bytecode": "0x60806040523480156200001157600080fd5b50604080518082018252600f81526e2232b1b2b73a3930ba3bb4ba3a32b960891b6020808301918252835180850190945260048452630444150560e41b908401528151919291620000659160009162000084565b5080516200007b90600190602084019062000084565b50505062000167565b82805462000092906200012a565b90600052602060002090601f016020900481019282620000b6576000855562000101565b82601f10620000d157805160ff191683800117855562000101565b8280016001018555821562000101579182015b8281111562000101578251825591602001919060010190620000e4565b506200010f92915062000113565b5090565b5b808211156200010f576000815560010162000114565b600181811c908216806200013f57607f821691505b602082108114156200016157634e487b7160e01b600052602260045260246000fd5b50919050565b6140b480620001776000396000f3fe60806040526004361061020f5760003560e01c80639da3066711610118578063c6d9a474116100a0578063ddd3fd0a1161006f578063ddd3fd0a14610686578063e985e9c5146106a6578063fa561152146106ef578063fa99654a1461070f578063fc6c776f1461072f57600080fd5b8063c6d9a47414610606578063c87b56dd14610633578063d6313c0614610653578063d85d3d271461066657600080fd5b8063b2d0aca3116100e7578063b2d0aca31461053e578063b88d4fde1461055e578063bbe156271461057e578063bdd05adb146105ab578063c1ac58c4146105cb57600080fd5b80639da30667146104bb5780639f181b5e146104e8578063a22cb465146104fe578063aa7e56831461051e57600080fd5b806323edf6971161019b57806342842e0e1161016a57806342842e0e146104265780636352211e1461044657806370a082311461046657806385d3cb371461048657806395d89b41146104a657600080fd5b806323edf6971461037c5780632f85b732146103a957806330561100146103e457806331a4bcb51461040657600080fd5b8063094cd5ee116101e2578063094cd5ee146102c5578063095ea7b3146102e75780630b1e7f831461030757806317906c2e1461033857806323b872dd1461035c57600080fd5b806301ffc9a714610214578063047b07bf1461024957806306fdde031461026b578063081812fc1461028d575b600080fd5b34801561022057600080fd5b5061023461022f366004613752565b61075f565b60405190151581526020015b60405180910390f35b34801561025557600080fd5b5061025e6107b1565b604051610240919061376f565b34801561027757600080fd5b5061028061087d565b604051610240919061380b565b34801561029957600080fd5b506102ad6102a836600461381e565b61090f565b6040516001600160a01b039091168152602001610240565b3480156102d157600080fd5b506102e56102e036600461381e565b61099c565b005b3480156102f357600080fd5b506102e5610302366004613853565b610bed565b34801561031357600080fd5b5061032761032236600461381e565b610d03565b60405161024095949392919061387d565b34801561034457600080fd5b5061034e60085481565b604051908152602001610240565b34801561036857600080fd5b506102e56103773660046138be565b610dc9565b34801561038857600080fd5b5061039c61039736600461381e565b610dfa565b60405161024091906138fa565b3480156103b557600080fd5b506102346103c436600461398e565b600d60209081526000928352604080842090915290825290205460ff1681565b3480156103f057600080fd5b506103f9611178565b60405161024091906139b0565b34801561041257600080fd5b506102e561042136600461398e565b6113ad565b34801561043257600080fd5b506102e56104413660046138be565b61176d565b34801561045257600080fd5b506102ad61046136600461381e565b611788565b34801561047257600080fd5b5061034e610481366004613a42565b6117ff565b34801561049257600080fd5b506102e56104a136600461381e565b611886565b3480156104b257600080fd5b50610280611914565b3480156104c757600080fd5b5061034e6104d636600461381e565b600f6020526000908152604090205481565b3480156104f457600080fd5b5061034e60075481565b34801561050a57600080fd5b506102e5610519366004613a5d565b611923565b34801561052a57600080fd5b506102e5610539366004613b45565b611932565b34801561054a57600080fd5b50610234610559366004613b8c565b611c04565b34801561056a57600080fd5b506102e5610579366004613bb8565b611d70565b34801561058a57600080fd5b5061034e610599366004613a42565b600a6020526000908152604090205481565b3480156105b757600080fd5b506102e56105c6366004613c34565b611da8565b3480156105d757600080fd5b506102346105e6366004613b8c565b600e60209081526000928352604080842090915290825290205460ff1681565b34801561061257600080fd5b5061034e61062136600461381e565b600c6020526000908152604090205481565b34801561063f57600080fd5b5061028061064e36600461381e565b611f24565b6102e561066136600461381e565b61209b565b34801561067257600080fd5b5061034e610681366004613c34565b61233b565b34801561069257600080fd5b506102e56106a136600461381e565b61237c565b3480156106b257600080fd5b506102346106c1366004613c69565b6001600160a01b03918216600090815260056020908152604080832093909416825291909152205460ff1690565b3480156106fb57600080fd5b506102e561070a366004613c93565b612661565b34801561071b57600080fd5b506102e561072a366004613b45565b612a6c565b34801561073b57600080fd5b5061074f61074a36600461398e565b612cdd565b6040516102409493929190613ce3565b60006001600160e01b031982166380ac58cd60e01b148061079057506001600160e01b03198216635b5e139f60e01b145b806107ab57506301ffc9a760e01b6001600160e01b03198316145b92915050565b60606107bc336117ff565b67ffffffffffffffff8111156107d4576107d4613a99565b6040519080825280602002602001820160405280156107fd578160200160208202803683370190505b50600754909150600090815b818110156108775733610820610461836001613d2e565b6001600160a01b031614156108655761083a816001613d2e565b84848151811061084c5761084c613d46565b60209081029190910101528261086181613d5c565b9350505b8061086f81613d5c565b915050610809565b50505090565b60606000805461088c90613d77565b80601f01602080910402602001604051908101604052809291908181526020018280546108b890613d77565b80156109055780601f106108da57610100808354040283529160200191610905565b820191906000526020600020905b8154815290600101906020018083116108e857829003601f168201915b5050505050905090565b600061091a82612da3565b6109805760405162461bcd60e51b815260206004820152602c60248201527f4552433732313a20617070726f76656420717565727920666f72206e6f6e657860448201526b34b9ba32b73a103a37b5b2b760a11b60648201526084015b60405180910390fd5b506000908152600460205260409020546001600160a01b031690565b6000811180156109ae57506008548111155b6109ca5760405162461bcd60e51b815260040161097790613db2565b6000600960008381526020019081526020016000206040518060a001604052908160008201548152602001600182018054610a0490613d77565b80601f0160208091040260200160405190810160405280929190818152602001828054610a3090613d77565b8015610a7d5780601f10610a5257610100808354040283529160200191610a7d565b820191906000526020600020905b815481529060010190602001808311610a6057829003601f168201915b5050509183525050600282015460208201526003909101546001600160a01b0381166040830152600160a01b900460ff1615156060909101526080810151909150610ada5760405162461bcd60e51b815260040161097790613ddb565b60608101516001600160a01b03163314610b365760405162461bcd60e51b815260206004820152601b60248201527f4f6e6c7920706f737420617574686f722063616e2064656c65746500000000006044820152606401610977565b600060808201819052828152600960209081526040909120825181558183015180518493610b6b9260018501929101906136a0565b5060408281015160028301556060830151600390920180546080909401511515600160a01b026001600160a81b03199094166001600160a01b039093169290921792909217905580518381523360208201527f1da4a15b15417b54b8b3bea2ca87cfc4c94f0fee7d86702d0dab9e2906e7a7d391015b60405180910390a15050565b6000610bf882611788565b9050806001600160a01b0316836001600160a01b03161415610c665760405162461bcd60e51b815260206004820152602160248201527f4552433732313a20617070726f76616c20746f2063757272656e74206f776e656044820152603960f91b6064820152608401610977565b336001600160a01b0382161480610c825750610c8281336106c1565b610cf45760405162461bcd60e51b815260206004820152603860248201527f4552433732313a20617070726f76652063616c6c6572206973206e6f74206f7760448201527f6e6572206e6f7220617070726f76656420666f7220616c6c00000000000000006064820152608401610977565b610cfe8383612dc0565b505050565b60096020526000908152604090208054600182018054919291610d2590613d77565b80601f0160208091040260200160405190810160405280929190818152602001828054610d5190613d77565b8015610d9e5780601f10610d7357610100808354040283529160200191610d9e565b820191906000526020600020905b815481529060010190602001808311610d8157829003601f168201915b5050505060028301546003909301549192916001600160a01b0381169150600160a01b900460ff1685565b610dd33382612e2e565b610def5760405162461bcd60e51b815260040161097790613e08565b610cfe838383612f14565b6060600082118015610e0e57506008548211155b610e2a5760405162461bcd60e51b815260040161097790613db2565b6000600960008481526020019081526020016000206040518060a001604052908160008201548152602001600182018054610e6490613d77565b80601f0160208091040260200160405190810160405280929190818152602001828054610e9090613d77565b8015610edd5780601f10610eb257610100808354040283529160200191610edd565b820191906000526020600020905b815481529060010190602001808311610ec057829003601f168201915b5050509183525050600282015460208201526003909101546001600160a01b0381166040830152600160a01b900460ff1615156060909101526080810151909150610f3a5760405162461bcd60e51b815260040161097790613ddb565b600060015b6000858152600c60205260409020548111610f96576000858152600d6020908152604080832084845290915290205460ff1615610f845781610f8081613d5c565b9250505b80610f8e81613d5c565b915050610f3f565b508067ffffffffffffffff811115610fb057610fb0613a99565b60405190808252806020026020018201604052801561101557816020015b6110026040518060800160405280600081526020016060815260200160006001600160a01b03168152602001600081525090565b815260200190600190039081610fce5790505b509250600060015b6000868152600c6020526040902054811161116f576000868152600d6020908152604080832084845290915290205460ff161561115d576000868152600b6020908152604080832084845282529182902082516080810190935280548352600181018054919284019161108f90613d77565b80601f01602080910402602001604051908101604052809291908181526020018280546110bb90613d77565b80156111085780601f106110dd57610100808354040283529160200191611108565b820191906000526020600020905b8154815290600101906020018083116110eb57829003601f168201915b505050918352505060028201546001600160a01b03166020820152600390910154604090910152855186908490811061114357611143613d46565b6020026020010181905250818061115990613d5c565b9250505b8061116781613d5c565b91505061101d565b50505050919050565b6060600060015b60085481116111c957600081815260096020526040902060030154600160a01b900460ff16156111b757816111b381613d5c565b9250505b806111c181613d5c565b91505061117f565b508067ffffffffffffffff8111156111e3576111e3613a99565b60405190808252806020026020018201604052801561125157816020015b61123e6040518060a0016040528060008152602001606081526020016000815260200160006001600160a01b031681526020016000151581525090565b8152602001906001900390816112015790505b509150600060015b600854811161087757600081815260096020526040902060030154600160a01b900460ff161561139b57600960008281526020019081526020016000206040518060a0016040529081600082015481526020016001820180546112bb90613d77565b80601f01602080910402602001604051908101604052809291908181526020018280546112e790613d77565b80156113345780601f1061130957610100808354040283529160200191611334565b820191906000526020600020905b81548152906001019060200180831161131757829003601f168201915b5050509183525050600282015460208201526003909101546001600160a01b0381166040830152600160a01b900460ff161515606090910152845185908490811061138157611381613d46565b6020026020010181905250818061139790613d5c565b9250505b806113a581613d5c565b915050611259565b6000821180156113bf57506008548211155b6113db5760405162461bcd60e51b815260040161097790613db2565b6000811180156113f957506000828152600c60205260409020548111155b61143a5760405162461bcd60e51b8152602060048201526012602482015271125b9d985b1a590818dbdb5b595b9d081a5960721b6044820152606401610977565b6000600960008481526020019081526020016000206040518060a00160405290816000820154815260200160018201805461147490613d77565b80601f01602080910402602001604051908101604052809291908181526020018280546114a090613d77565b80156114ed5780601f106114c2576101008083540402835291602001916114ed565b820191906000526020600020905b8154815290600101906020018083116114d057829003601f168201915b5050509183525050600282015460208201526003909101546001600160a01b0381166040830152600160a01b900460ff161515606090910152608081015190915061154a5760405162461bcd60e51b815260040161097790613ddb565b6000838152600d6020908152604080832085845290915290205460ff166115c55760405162461bcd60e51b815260206004820152602960248201527f436f6d6d656e7420646f6573206e6f74206578697374206f7220616c726561646044820152681e4819195b195d195960ba1b6064820152608401610977565b6000838152600b60209081526040808320858452825280832081516080810190925280548252600181018054929391929184019161160290613d77565b80601f016020809104026020016040519081016040528092919081815260200182805461162e90613d77565b801561167b5780601f106116505761010080835404028352916020019161167b565b820191906000526020600020905b81548152906001019060200180831161165e57829003601f168201915b505050918352505060028201546001600160a01b0390811660208301526003909201546040918201528201519192501633146117045760405162461bcd60e51b815260206004820152602260248201527f4f6e6c792074686520636f6d6d656e7420617574686f722063616e2064656c65604482015261746560f01b6064820152608401610977565b6000848152600d60209081526040808320868452825291829020805460ff19169055815186815290810185905233918101919091527f6ee692db105027f6f2626ec7348b1fee62bdd8b6aa9c2999ceed2aebd4dc3ee9906060015b60405180910390a150505050565b610cfe83838360405180602001604052806000815250611d70565b6000818152600260205260408120546001600160a01b0316806107ab5760405162461bcd60e51b815260206004820152602960248201527f4552433732313a206f776e657220717565727920666f72206e6f6e657869737460448201526832b73a103a37b5b2b760b91b6064820152608401610977565b60006001600160a01b03821661186a5760405162461bcd60e51b815260206004820152602a60248201527f4552433732313a2062616c616e636520717565727920666f7220746865207a65604482015269726f206164647265737360b01b6064820152608401610977565b506001600160a01b031660009081526003602052604090205490565b3361189082611788565b6001600160a01b0316146119025760405162461bcd60e51b815260206004820152603360248201527f4d757374206f776e20746865206e667420796f752077616e7420746f2073656c60448201527265637420617320796f75722070726f66696c6560681b6064820152608401610977565b336000908152600a6020526040902055565b60606001805461088c90613d77565b61192e3383836130b0565b5050565b60008211801561194457506008548211155b6119605760405162461bcd60e51b815260040161097790613db2565b600061196b336117ff565b116119ca5760405162461bcd60e51b815260206004820152602960248201527f4d757374206f776e206120646563656e74726174776974746572206e667420746044820152681bc818dbdb5b595b9d60ba1b6064820152608401610977565b60008151116119eb5760405162461bcd60e51b815260040161097790613e59565b6000600960008481526020019081526020016000206040518060a001604052908160008201548152602001600182018054611a2590613d77565b80601f0160208091040260200160405190810160405280929190818152602001828054611a5190613d77565b8015611a9e5780601f10611a7357610100808354040283529160200191611a9e565b820191906000526020600020905b815481529060010190602001808311611a8157829003601f168201915b5050509183525050600282015460208201526003909101546001600160a01b0381166040830152600160a01b900460ff1615156060909101526080810151909150611afb5760405162461bcd60e51b815260040161097790613ddb565b6000838152600c60205260408120805491611b1583613d5c565b90915550506000838152600c602090815260408083205481516080810183528181528084018781523382850152426060830152888652600b85528386208387528552929094208451815591518051919493611b78926001850192909101906136a0565b506040828101516002830180546001600160a01b0319166001600160a01b039092169190911790556060909201516003909101556000858152600d60209081528282208483529052819020805460ff19166001179055517ff1f868ee5254a279592f96ca98448515dc899b0eb055fca0a1da86fd90de77bd9061175f9086908490879033904290613e90565b60008083118015611c1757506008548311155b611c335760405162461bcd60e51b815260040161097790613db2565b6000600960008581526020019081526020016000206040518060a001604052908160008201548152602001600182018054611c6d90613d77565b80601f0160208091040260200160405190810160405280929190818152602001828054611c9990613d77565b8015611ce65780601f10611cbb57610100808354040283529160200191611ce6565b820191906000526020600020905b815481529060010190602001808311611cc957829003601f168201915b5050509183525050600282015460208201526003909101546001600160a01b0381166040830152600160a01b900460ff1615156060909101526080810151909150611d435760405162461bcd60e51b815260040161097790613ddb565b50506000918252600e602090815260408084206001600160a01b0393909316845291905290205460ff1690565b611d7a3383612e2e565b611d965760405162461bcd60e51b815260040161097790613e08565b611da28484848461317f565b50505050565b6000611db3336117ff565b11611e0f5760405162461bcd60e51b815260206004820152602660248201527f4d757374206f776e206120646563656e74726174776974746572206e667420746044820152651bc81c1bdcdd60d21b6064820152608401610977565b6000815111611e305760405162461bcd60e51b815260040161097790613e59565b60088054906000611e4083613d5c565b90915550506040805160a0810182526008548082526020808301858152600084860181905233606086015260016080860181905293815260098352949094208351815593518051939493611e9b9385019291909101906136a0565b5060408281015160028301556060830151600390920180546080909401511515600160a01b026001600160a81b03199094166001600160a01b039093169290921792909217905560085490517fc66336337a24e513f909b3b25119854dba8385d51307dbc7d31d1b2805e19c7e91611f199184906000903390613ecc565b60405180910390a150565b6060611f2f82612da3565b611f955760405162461bcd60e51b815260206004820152603160248201527f45524337323155524953746f726167653a2055524920717565727920666f72206044820152703737b732bc34b9ba32b73a103a37b5b2b760791b6064820152608401610977565b60008281526006602052604081208054611fae90613d77565b80601f0160208091040260200160405190810160405280929190818152602001828054611fda90613d77565b80156120275780601f10611ffc57610100808354040283529160200191612027565b820191906000526020600020905b81548152906001019060200180831161200a57829003601f168201915b50505050509050600061204560408051602081019091526000815290565b9050805160001415612058575092915050565b81511561208a578082604051602001612072929190613f06565b60405160208183030381529060405292505050919050565b612093846131b2565b949350505050565b6000811180156120ad57506008548111155b6120c95760405162461bcd60e51b815260040161097790613db2565b6000600960008381526020019081526020016000206040518060a00160405290816000820154815260200160018201805461210390613d77565b80601f016020809104026020016040519081016040528092919081815260200182805461212f90613d77565b801561217c5780601f106121515761010080835404028352916020019161217c565b820191906000526020600020905b81548152906001019060200180831161215f57829003601f168201915b5050509183525050600282015460208201526003909101546001600160a01b0381166040830152600160a01b900460ff16151560609091015260808101519091506121d95760405162461bcd60e51b815260040161097790613ddb565b60608101516001600160a01b03163314156122365760405162461bcd60e51b815260206004820152601860248201527f43616e6e6f742074697020796f7572206f776e20706f737400000000000000006044820152606401610977565b60608101516040516001600160a01b03909116903480156108fc02916000818181858888f19350505050158015612271573d6000803e3d6000fd5b5034816040018181516122849190613d2e565b90525060008281526009602090815260409091208251815581830151805184936122b59260018501929101906136a0565b506040828101516002830155606080840151600390930180546080909501511515600160a01b026001600160a81b03199095166001600160a01b0390941693909317939093179091556020830151838201519284015191517f20988fe475351e75813672abada1dddb7ac67cbbeb81e61e1160b8329d8cdf1c93610be193879392613ecc565b600780546000918261234c83613d5c565b919050555061235d3360075461328a565b612369600754836132a4565b612374600754611886565b505060075490565b60008111801561238e57506008548111155b6123aa5760405162461bcd60e51b815260040161097790613db2565b60006123b5336117ff565b116124125760405162461bcd60e51b815260206004820152602760248201527f4d757374206f776e206120646563656e74726174776974746572206e667420746044820152661bc81c995858dd60ca1b6064820152608401610977565b6000600960008381526020019081526020016000206040518060a00160405290816000820154815260200160018201805461244c90613d77565b80601f016020809104026020016040519081016040528092919081815260200182805461247890613d77565b80156124c55780601f1061249a576101008083540402835291602001916124c5565b820191906000526020600020905b8154815290600101906020018083116124a857829003601f168201915b5050509183525050600282015460208201526003909101546001600160a01b0381166040830152600160a01b900460ff16151560609091015260808101519091506125225760405162461bcd60e51b815260040161097790613ddb565b6000828152600e6020908152604080832033845290915290205460ff16156125d1576000828152600e602090815260408083203384528252808320805460ff19169055848352600f909152812080549161257b83613f35565b90915550506000828152600f60209081526040918290205482518581523392810192909252918101919091527fb6740d9568e420d02d2b6f51f45014f89940368fc3ac47e7e9933d52990dc80390606001610be1565b6000828152600e602090815260408083203384528252808320805460ff19166001179055848352600f909152812080549161260b83613d5c565b90915550506000828152600f60209081526040918290205482518581523392810192909252918101919091527f067eaa1bc58cab486335628198f3fa676fd1e9720e6482423ee85f5651b4e1c390606001610be1565b60008311801561267357506008548311155b61268f5760405162461bcd60e51b815260040161097790613db2565b6000821180156126ad57506000838152600c60205260409020548211155b6126ee5760405162461bcd60e51b8152602060048201526012602482015271125b9d985b1a590818dbdb5b595b9d081a5960721b6044820152606401610977565b6000600960008581526020019081526020016000206040518060a00160405290816000820154815260200160018201805461272890613d77565b80601f016020809104026020016040519081016040528092919081815260200182805461275490613d77565b80156127a15780601f10612776576101008083540402835291602001916127a1565b820191906000526020600020905b81548152906001019060200180831161278457829003601f168201915b5050509183525050600282015460208201526003909101546001600160a01b0381166040830152600160a01b900460ff16151560609091015260808101519091506127fe5760405162461bcd60e51b815260040161097790613ddb565b6000848152600d6020908152604080832086845290915290205460ff166128605760405162461bcd60e51b815260206004820152601660248201527510dbdb5b595b9d08191bd95cc81b9bdd08195e1a5cdd60521b6044820152606401610977565b6000848152600b60209081526040808320868452825280832081516080810190925280548252600181018054929391929184019161289d90613d77565b80601f01602080910402602001604051908101604052809291908181526020018280546128c990613d77565b80156129165780601f106128eb57610100808354040283529160200191612916565b820191906000526020600020905b8154815290600101906020018083116128f957829003601f168201915b505050918352505060028201546001600160a01b0390811660208301526003909201546040918201528201519192501633146129945760405162461bcd60e51b815260206004820181905260248201527f4f6e6c792074686520636f6d6d656e7420617574686f722063616e20656469746044820152606401610977565b60008351116129b55760405162461bcd60e51b815260040161097790613e59565b60208082018481524260608401526000878152600b8352604080822088835284529020835181559051805184936129f39260018501929101906136a0565b506040828101516002830180546001600160a01b0319166001600160a01b03909216919091179055606090920151600390910155517ff486e8ca2d84598f8ee0f7e6718d5b5463cbbd918e6a3fb75d9f0d47941603e890612a5d9087908790879033904290613e90565b60405180910390a15050505050565b600082118015612a7e57506008548211155b612a9a5760405162461bcd60e51b815260040161097790613db2565b6000815111612abb5760405162461bcd60e51b815260040161097790613e59565b6000600960008481526020019081526020016000206040518060a001604052908160008201548152602001600182018054612af590613d77565b80601f0160208091040260200160405190810160405280929190818152602001828054612b2190613d77565b8015612b6e5780601f10612b4357610100808354040283529160200191612b6e565b820191906000526020600020905b815481529060010190602001808311612b5157829003601f168201915b5050509183525050600282015460208201526003909101546001600160a01b0381166040830152600160a01b900460ff1615156060909101526080810151909150612bcb5760405162461bcd60e51b815260040161097790613ddb565b60608101516001600160a01b03163314612c275760405162461bcd60e51b815260206004820152601960248201527f4f6e6c7920706f737420617574686f722063616e2065646974000000000000006044820152606401610977565b60208082018381526000858152600983526040902083518155905180518493612c579260018501929101906136a0565b5060408281015160028301556060830151600390920180546080909401511515600160a01b026001600160a81b03199094166001600160a01b0390931692909217929092179055517f14010afed372a560fdba37ec703ee439247f73b29b515ef3359fc95bc30567ff90612cd090859085903390613f4c565b60405180910390a1505050565b600b60209081526000928352604080842090915290825290208054600182018054919291612d0a90613d77565b80601f0160208091040260200160405190810160405280929190818152602001828054612d3690613d77565b8015612d835780601f10612d5857610100808354040283529160200191612d83565b820191906000526020600020905b815481529060010190602001808311612d6657829003601f168201915b50505050600283015460039093015491926001600160a01b031691905084565b6000908152600260205260409020546001600160a01b0316151590565b600081815260046020526040902080546001600160a01b0319166001600160a01b0384169081179091558190612df582611788565b6001600160a01b03167f8c5be1e5ebec7d5bd14f71427d1e84f3dd0314c0f7b2291e5b200ac8c7c3b92560405160405180910390a45050565b6000612e3982612da3565b612e9a5760405162461bcd60e51b815260206004820152602c60248201527f4552433732313a206f70657261746f7220717565727920666f72206e6f6e657860448201526b34b9ba32b73a103a37b5b2b760a11b6064820152608401610977565b6000612ea583611788565b9050806001600160a01b0316846001600160a01b03161480612ee05750836001600160a01b0316612ed58461090f565b6001600160a01b0316145b8061209357506001600160a01b0380821660009081526005602090815260408083209388168352929052205460ff16612093565b826001600160a01b0316612f2782611788565b6001600160a01b031614612f8b5760405162461bcd60e51b815260206004820152602560248201527f4552433732313a207472616e736665722066726f6d20696e636f72726563742060448201526437bbb732b960d91b6064820152608401610977565b6001600160a01b038216612fed5760405162461bcd60e51b8152602060048201526024808201527f4552433732313a207472616e7366657220746f20746865207a65726f206164646044820152637265737360e01b6064820152608401610977565b612ff8600082612dc0565b6001600160a01b0383166000908152600360205260408120805460019290613021908490613f7d565b90915550506001600160a01b038216600090815260036020526040812080546001929061304f908490613d2e565b909155505060008181526002602052604080822080546001600160a01b0319166001600160a01b0386811691821790925591518493918716917fddf252ad1be2c89b69c2b068fc378daa952ba7f163c4a11628f55a4df523b3ef91a4505050565b816001600160a01b0316836001600160a01b031614156131125760405162461bcd60e51b815260206004820152601960248201527f4552433732313a20617070726f766520746f2063616c6c6572000000000000006044820152606401610977565b6001600160a01b03838116600081815260056020908152604080832094871680845294825291829020805460ff191686151590811790915591519182527f17307eab39ab6107e8899845ad3d59bd9653f200f220920489ca2b5937696c31910160405180910390a3505050565b61318a848484612f14565b6131968484848461332f565b611da25760405162461bcd60e51b815260040161097790613f94565b60606131bd82612da3565b6132215760405162461bcd60e51b815260206004820152602f60248201527f4552433732314d657461646174613a2055524920717565727920666f72206e6f60448201526e3732bc34b9ba32b73a103a37b5b2b760891b6064820152608401610977565b600061323860408051602081019091526000815290565b905060008151116132585760405180602001604052806000815250613283565b806132628461343c565b604051602001613273929190613f06565b6040516020818303038152906040525b9392505050565b61192e82826040518060200160405280600081525061353a565b6132ad82612da3565b6133105760405162461bcd60e51b815260206004820152602e60248201527f45524337323155524953746f726167653a2055524920736574206f66206e6f6e60448201526d32bc34b9ba32b73a103a37b5b2b760911b6064820152608401610977565b60008281526006602090815260409091208251610cfe928401906136a0565b60006001600160a01b0384163b1561343157604051630a85bd0160e11b81526001600160a01b0385169063150b7a0290613373903390899088908890600401613fe6565b602060405180830381600087803b15801561338d57600080fd5b505af19250505080156133bd575060408051601f3d908101601f191682019092526133ba91810190614023565b60015b613417573d8080156133eb576040519150601f19603f3d011682016040523d82523d6000602084013e6133f0565b606091505b50805161340f5760405162461bcd60e51b815260040161097790613f94565b805181602001fd5b6001600160e01b031916630a85bd0160e11b149050612093565b506001949350505050565b6060816134605750506040805180820190915260018152600360fc1b602082015290565b8160005b811561348a578061347481613d5c565b91506134839050600a83614056565b9150613464565b60008167ffffffffffffffff8111156134a5576134a5613a99565b6040519080825280601f01601f1916602001820160405280156134cf576020820181803683370190505b5090505b8415612093576134e4600183613f7d565b91506134f1600a8661406a565b6134fc906030613d2e565b60f81b81838151811061351157613511613d46565b60200101906001600160f81b031916908160001a905350613533600a86614056565b94506134d3565b613544838361356d565b613551600084848461332f565b610cfe5760405162461bcd60e51b815260040161097790613f94565b6001600160a01b0382166135c35760405162461bcd60e51b815260206004820181905260248201527f4552433732313a206d696e7420746f20746865207a65726f20616464726573736044820152606401610977565b6135cc81612da3565b156136195760405162461bcd60e51b815260206004820152601c60248201527f4552433732313a20746f6b656e20616c7265616479206d696e746564000000006044820152606401610977565b6001600160a01b0382166000908152600360205260408120805460019290613642908490613d2e565b909155505060008181526002602052604080822080546001600160a01b0319166001600160a01b03861690811790915590518392907fddf252ad1be2c89b69c2b068fc378daa952ba7f163c4a11628f55a4df523b3ef908290a45050565b8280546136ac90613d77565b90600052602060002090601f0160209004810192826136ce5760008555613714565b82601f106136e757805160ff1916838001178555613714565b82800160010185558215613714579182015b828111156137145782518255916020019190600101906136f9565b50613720929150613724565b5090565b5b808211156137205760008155600101613725565b6001600160e01b03198116811461374f57600080fd5b50565b60006020828403121561376457600080fd5b813561328381613739565b6020808252825182820181905260009190848201906040850190845b818110156137a75783518352928401929184019160010161378b565b50909695505050505050565b60005b838110156137ce5781810151838201526020016137b6565b83811115611da25750506000910152565b600081518084526137f78160208601602086016137b3565b601f01601f19169290920160200192915050565b60208152600061328360208301846137df565b60006020828403121561383057600080fd5b5035919050565b80356001600160a01b038116811461384e57600080fd5b919050565b6000806040838503121561386657600080fd5b61386f83613837565b946020939093013593505050565b85815260a06020820152600061389660a08301876137df565b6040830195909552506001600160a01b03929092166060830152151560809091015292915050565b6000806000606084860312156138d357600080fd5b6138dc84613837565b92506138ea60208501613837565b9150604084013590509250925092565b60006020808301818452808551808352604092508286019150828160051b87010184880160005b8381101561398057603f19898403018552815160808151855288820151818a87015261394f828701826137df565b838a01516001600160a01b0316878b0152606093840151939096019290925250509386019390860190600101613921565b509098975050505050505050565b600080604083850312156139a157600080fd5b50508035926020909101359150565b60006020808301818452808551808352604092508286019150828160051b87010184880160005b8381101561398057603f19898403018552815160a08151855288820151818a870152613a05828701826137df565b838a0151878b01526060808501516001600160a01b03169088015260809384015115159390960192909252505093860193908601906001016139d7565b600060208284031215613a5457600080fd5b61328382613837565b60008060408385031215613a7057600080fd5b613a7983613837565b915060208301358015158114613a8e57600080fd5b809150509250929050565b634e487b7160e01b600052604160045260246000fd5b600067ffffffffffffffff80841115613aca57613aca613a99565b604051601f8501601f19908116603f01168101908282118183101715613af257613af2613a99565b81604052809350858152868686011115613b0b57600080fd5b858560208301376000602087830101525050509392505050565b600082601f830112613b3657600080fd5b61328383833560208501613aaf565b60008060408385031215613b5857600080fd5b82359150602083013567ffffffffffffffff811115613b7657600080fd5b613b8285828601613b25565b9150509250929050565b60008060408385031215613b9f57600080fd5b82359150613baf60208401613837565b90509250929050565b60008060008060808587031215613bce57600080fd5b613bd785613837565b9350613be560208601613837565b925060408501359150606085013567ffffffffffffffff811115613c0857600080fd5b8501601f81018713613c1957600080fd5b613c2887823560208401613aaf565b91505092959194509250565b600060208284031215613c4657600080fd5b813567ffffffffffffffff811115613c5d57600080fd5b61209384828501613b25565b60008060408385031215613c7c57600080fd5b613c8583613837565b9150613baf60208401613837565b600080600060608486031215613ca857600080fd5b8335925060208401359150604084013567ffffffffffffffff811115613ccd57600080fd5b613cd986828701613b25565b9150509250925092565b848152608060208201526000613cfc60808301866137df565b6001600160a01b03949094166040830152506060015292915050565b634e487b7160e01b600052601160045260246000fd5b60008219821115613d4157613d41613d18565b500190565b634e487b7160e01b600052603260045260246000fd5b6000600019821415613d7057613d70613d18565b5060010190565b600181811c90821680613d8b57607f821691505b60208210811415613dac57634e487b7160e01b600052602260045260246000fd5b50919050565b6020808252600f908201526e125b9d985b1a59081c1bdcdd081a59608a1b604082015260600190565b602080825260139082015272141bdcdd08191bd95cc81b9bdd08195e1a5cdd606a1b604082015260600190565b60208082526031908201527f4552433732313a207472616e736665722063616c6c6572206973206e6f74206f6040820152701ddb995c881b9bdc88185c1c1c9bdd9959607a1b606082015260800190565b60208082526019908201527f43616e6e6f74207061737320616e20656d707479206861736800000000000000604082015260600190565b85815284602082015260a060408201526000613eaf60a08301866137df565b6001600160a01b0394909416606083015250608001529392505050565b848152608060208201526000613ee560808301866137df565b6040830194909452506001600160a01b039190911660609091015292915050565b60008351613f188184602088016137b3565b835190830190613f2c8183602088016137b3565b01949350505050565b600081613f4457613f44613d18565b506000190190565b838152606060208201526000613f6560608301856137df565b905060018060a01b0383166040830152949350505050565b600082821015613f8f57613f8f613d18565b500390565b60208082526032908201527f4552433732313a207472616e7366657220746f206e6f6e20455243373231526560408201527131b2b4bb32b91034b6b83632b6b2b73a32b960711b606082015260800190565b6001600160a01b0385811682528416602082015260408101839052608060608201819052600090614019908301846137df565b9695505050505050565b60006020828403121561403557600080fd5b815161328381613739565b634e487b7160e01b600052601260045260246000fd5b60008261406557614065614040565b500490565b60008261407957614079614040565b50069056fea2646970667358221220fd6f266014bec4614f2cf68a1d7bd5a65b85cae3e60d5dcfaf42fb331a082f2964736f6c63430008090033",
  "linkReferences": {},
  "deployedLinkReferences": {}
}