{
  "_format": "hh-sol-artifact-1",
  "contractName": "Decentratwitter",
  "sourceName": "contracts/Decentratwitter.sol",
  "abi": [
    {
      "inputs": [],
      "stateMutability": "nonpayable",
      "type": "constructor"
    },
    {
      "anonymous": false,
      "inputs": [
        {
          "indexed": true,
          "internalType": "address",
          "name": "owner",
          "type": "address"
        },
        {
          "indexed": true,
          "internalType": "address",
          "name": "approved",
          "type": "address"
        },
        {
          "indexed": true,
          "internalType": "uint256",
          "name": "tokenId",
          "type": "uint256"
        }
      ],
      "name": "Approval",
      "type": "event"
    },
    {
      "anonymous": false,
      "inputs": [
        {
          "indexed": true,
          "internalType": "address",
          "name": "owner",
          "type": "address"
        },
        {
          "indexed": true,
          "internalType": "address",
          "name": "operator",
          "type": "address"
        },
        {
          "indexed": false,
          "internalType": "bool",
          "name": "approved",
          "type": "bool"
        }
      ],
      "name": "ApprovalForAll",
      "type": "event"
    },
    {
      "anonymous": false,
      "inputs": [
        {
          "indexed": false,
          "internalType": "uint256",
          "name": "postId",
          "type": "uint256"
        },
        {
          "indexed": false,
          "internalType": "uint256",
          "name": "commentId",
          "type": "uint256"
        },
        {
          "indexed": false,
          "internalType": "string",
          "name": "hash",
          "type": "string"
        },
        {
          "indexed": false,
          "internalType": "address payable",
          "name": "author",
          "type": "address"
        },
        {
          "indexed": false,
          "internalType": "uint256",
          "name": "timestamp",
          "type": "uint256"
        }
      ],
      "name": "CommentCreated",
      "type": "event"
    },
    {
      "anonymous": false,
      "inputs": [
        {
          "indexed": false,
          "internalType": "uint256",
          "name": "postId",
          "type": "uint256"
        },
        {
          "indexed": false,
          "internalType": "uint256",
          "name": "commentId",
          "type": "uint256"
        },
        {
          "indexed": false,
          "internalType": "address payable",
          "name": "author",
          "type": "address"
        }
      ],
      "name": "CommentDeleted",
      "type": "event"
    },
    {
      "anonymous": false,
      "inputs": [
        {
          "indexed": false,
          "internalType": "uint256",
          "name": "postId",
          "type": "uint256"
        },
        {
          "indexed": false,
          "internalType": "uint256",
          "name": "commentId",
          "type": "uint256"
        },
        {
          "indexed": false,
          "internalType": "string",
          "name": "hash",
          "type": "string"
        },
        {
          "indexed": false,
          "internalType": "address payable",
          "name": "author",
          "type": "address"
        },
        {
          "indexed": false,
          "internalType": "uint256",
          "name": "timestamp",
          "type": "uint256"
        }
      ],
      "name": "CommentUpdated",
      "type": "event"
    },
    {
      "anonymous": false,
      "inputs": [
        {
          "indexed": false,
          "internalType": "uint256",
          "name": "id",
          "type": "uint256"
        },
        {
          "indexed": false,
          "internalType": "string",
          "name": "hash",
          "type": "string"
        },
        {
          "indexed": false,
          "internalType": "uint256",
          "name": "tipAmount",
          "type": "uint256"
        },
        {
          "indexed": false,
          "internalType": "address payable",
          "name": "author",
          "type": "address"
        }
      ],
      "name": "PostCreated",
      "type": "event"
    },
    {
      "anonymous": false,
      "inputs": [
        {
          "indexed": false,
          "internalType": "uint256",
          "name": "id",
          "type": "uint256"
        },
        {
          "indexed": false,
          "internalType": "address payable",
          "name": "author",
          "type": "address"
        }
      ],
      "name": "PostDeleted",
      "type": "event"
    },
    {
      "anonymous": false,
      "inputs": [
        {
          "indexed": false,
          "internalType": "uint256",
          "name": "id",
          "type": "uint256"
        },
        {
          "indexed": false,
          "internalType": "string",
          "name": "hash",
          "type": "string"
        },
        {
          "indexed": false,
          "internalType": "uint256",
          "name": "tipAmount",
          "type": "uint256"
        },
        {
          "indexed": false,
          "internalType": "address payable",
          "name": "author",
          "type": "address"
        }
      ],
      "name": "PostTipped",
      "type": "event"
    },
    {
      "anonymous": false,
      "inputs": [
        {
          "indexed": false,
          "internalType": "uint256",
          "name": "id",
          "type": "uint256"
        },
        {
          "indexed": false,
          "internalType": "string",
          "name": "hash",
          "type": "string"
        },
        {
          "indexed": false,
          "internalType": "address payable",
          "name": "author",
          "type": "address"
        }
      ],
      "name": "PostUpdated",
      "type": "event"
    },
    {
      "anonymous": false,
      "inputs": [
        {
          "indexed": false,
          "internalType": "uint256",
          "name": "postId",
          "type": "uint256"
        },
        {
          "indexed": false,
          "internalType": "address",
          "name": "user",
          "type": "address"
        },
        {
          "indexed": false,
          "internalType": "uint256",
          "name": "reactionCount",
          "type": "uint256"
        }
      ],
      "name": "ReactionAdded",
      "type": "event"
    },
    {
      "anonymous": false,
      "inputs": [
        {
          "indexed": false,
          "internalType": "uint256",
          "name": "postId",
          "type": "uint256"
        },
        {
          "indexed": false,
          "internalType": "address",
          "name": "user",
          "type": "address"
        },
        {
          "indexed": false,
          "internalType": "uint256",
          "name": "reactionCount",
          "type": "uint256"
        }
      ],
      "name": "ReactionRemoved",
      "type": "event"
    },
    {
      "anonymous": false,
      "inputs": [
        {
          "indexed": true,
          "internalType": "address",
          "name": "from",
          "type": "address"
        },
        {
          "indexed": true,
          "internalType": "address",
          "name": "to",
          "type": "address"
        },
        {
          "indexed": true,
          "internalType": "uint256",
          "name": "tokenId",
          "type": "uint256"
        }
      ],
      "name": "Transfer",
      "type": "event"
    },
    {
      "inputs": [
        {
          "internalType": "uint256",
          "name": "_postId",
          "type": "uint256"
        },
        {
          "internalType": "string",
          "name": "_commentHash",
          "type": "string"
        }
      ],
      "name": "addComment",
      "outputs": [],
      "stateMutability": "nonpayable",
      "type": "function"
    },
    {
      "inputs": [
        {
          "internalType": "address",
          "name": "to",
          "type": "address"
        },
        {
          "internalType": "uint256",
          "name": "tokenId",
          "type": "uint256"
        }
      ],
      "name": "approve",
      "outputs": [],
      "stateMutability": "nonpayable",
      "type": "function"
    },
    {
      "inputs": [
        {
          "internalType": "address",
          "name": "owner",
          "type": "address"
        }
      ],
      "name": "balanceOf",
      "outputs": [
        {
          "internalType": "uint256",
          "name": "",
          "type": "uint256"
        }
      ],
      "stateMutability": "view",
      "type": "function"
    },
    {
      "inputs": [
        {
          "internalType": "uint256",
          "name": "",
          "type": "uint256"
        }
      ],
      "name": "commentCounts",
      "outputs": [
        {
          "internalType": "uint256",
          "name": "",
          "type": "uint256"
        }
      ],
      "stateMutability": "view",
      "type": "function"
    },
    {
      "inputs": [
        {
          "internalType": "uint256",
          "name": "",
          "type": "uint256"
        },
        {
          "internalType": "uint256",
          "name": "",
          "type": "uint256"
        }
      ],
      "name": "commentExists",
      "outputs": [
        {
          "internalType": "bool",
          "name": "",
          "type": "bool"
        }
      ],
      "stateMutability": "view",
      "type": "function"
    },
    {
      "inputs": [
        {
          "internalType": "uint256",
          "name": "",
          "type": "uint256"
        },
        {
          "internalType": "uint256",
          "name": "",
          "type": "uint256"
        }
      ],
      "name": "comments",
      "outputs": [
        {
          "internalType": "uint256",
          "name": "id",
          "type": "uint256"
        },
        {
          "internalType": "string",
          "name": "hash",
          "type": "string"
        },
        {
          "internalType": "address payable",
          "name": "author",
          "type": "address"
        },
        {
          "internalType": "uint256",
          "name": "timestamp",
          "type": "uint256"
        }
      ],
      "stateMutability": "view",
      "type": "function"
    },
    {
      "inputs": [
        {
          "internalType": "uint256",
          "name": "_postId",
          "type": "uint256"
        },
        {
          "internalType": "uint256",
          "name": "_commentId",
          "type": "uint256"
        }
      ],
      "name": "deleteComment",
      "outputs": [],
      "stateMutability": "nonpayable",
      "type": "function"
    },
    {
      "inputs": [
        {
          "internalType": "uint256",
          "name": "_id",
          "type": "uint256"
        }
      ],
      "name": "deletePost",
      "outputs": [],
      "stateMutability": "nonpayable",
      "type": "function"
    },
    {
      "inputs": [
        {
          "internalType": "uint256",
          "name": "_postId",
          "type": "uint256"
        },
        {
          "internalType": "uint256",
          "name": "_commentId",
          "type": "uint256"
        },
        {
          "internalType": "string",
          "name": "_commentHash",
          "type": "string"
        }
      ],
      "name": "editComment",
      "outputs": [],
      "stateMutability": "nonpayable",
      "type": "function"
    },
    {
      "inputs": [
        {
          "internalType": "uint256",
          "name": "_id",
          "type": "uint256"
        },
        {
          "internalType": "string",
          "name": "_postHash",
          "type": "string"
        }
      ],
      "name": "editPost",
      "outputs": [],
      "stateMutability": "nonpayable",
      "type": "function"
    },
    {
      "inputs": [],
      "name": "getAllPosts",
      "outputs": [
        {
          "components": [
            {
              "internalType": "uint256",
              "name": "id",
              "type": "uint256"
            },
            {
              "internalType": "string",
              "name": "hash",
              "type": "string"
            },
            {
              "internalType": "uint256",
              "name": "tipAmount",
              "type": "uint256"
            },
            {
              "internalType": "address payable",
              "name": "author",
              "type": "address"
            },
            {
              "internalType": "bool",
              "name": "exists",
              "type": "bool"
            }
          ],
          "internalType": "struct Decentratwitter.Post[]",
          "name": "_posts",
          "type": "tuple[]"
        }
      ],
      "stateMutability": "view",
      "type": "function"
    },
    {
      "inputs": [
        {
          "internalType": "uint256",
          "name": "tokenId",
          "type": "uint256"
        }
      ],
      "name": "getApproved",
      "outputs": [
        {
          "internalType": "address",
          "name": "",
          "type": "address"
        }
      ],
      "stateMutability": "view",
      "type": "function"
    },
    {
      "inputs": [
        {
          "internalType": "uint256",
          "name": "_postId",
          "type": "uint256"
        }
      ],
      "name": "getComments",
      "outputs": [
        {
          "components": [
            {
              "internalType": "uint256",
              "name": "id",
              "type": "uint256"
            },
            {
              "internalType": "string",
              "name": "hash",
              "type": "string"
            },
            {
              "internalType": "address payable",
              "name": "author",
              "type": "address"
            },
            {
              "internalType": "uint256",
              "name": "timestamp",
              "type": "uint256"
            }
          ],
          "internalType": "struct Decentratwitter.Comment[]",
          "name": "_comments",
          "type": "tuple[]"
        }
      ],
      "stateMutability": "view",
      "type": "function"
    },
    {
      "inputs": [],
      "name": "getMyNfts",
      "outputs": [
        {
          "internalType": "uint256[]",
          "name": "_ids",
          "type": "uint256[]"
        }
      ],
      "stateMutability": "view",
      "type": "function"
    },
    {
      "inputs": [
        {
          "internalType": "uint256",
          "name": "_id",
          "type": "uint256"
        },
        {
          "internalType": "address",
          "name": "_user",
          "type": "address"
        }
      ],
      "name": "hasReacted",
      "outputs": [
        {
          "internalType": "bool",
          "name": "",
          "type": "bool"
        }
      ],
      "stateMutability": "view",
      "type": "function"
    },
    {
      "inputs": [
        {
          "internalType": "address",
          "name": "owner",
          "type": "address"
        },
        {
          "internalType": "address",
          "name": "operator",
          "type": "address"
        }
      ],
      "name": "isApprovedForAll",
      "outputs": [
        {
          "internalType": "bool",
          "name": "",
          "type": "bool"
        }
      ],
      "stateMutability": "view",
      "type": "function"
    },
    {
      "inputs": [
        {
          "internalType": "string",
          "name": "_tokenURI",
          "type": "string"
        }
      ],
      "name": "mint",
      "outputs": [
        {
          "internalType": "uint256",
          "name": "",
          "type": "uint256"
        }
      ],
      "stateMutability": "nonpayable",
      "type": "function"
    },
    {
      "inputs": [],
      "name": "name",
      "outputs": [
        {
          "internalType": "string",
          "name": "",
          "type": "string"
        }
      ],
      "stateMutability": "view",
      "type": "function"
    },
    {
      "inputs": [
        {
          "internalType": "uint256",
          "name": "tokenId",
          "type": "uint256"
        }
      ],
      "name": "ownerOf",
      "outputs": [
        {
          "internalType": "address",
          "name": "",
          "type": "address"
        }
      ],
      "stateMutability": "view",
      "type": "function"
    },
    {
      "inputs": [],
      "name": "postCount",
      "outputs": [
        {
          "internalType": "uint256",
          "name": "",
          "type": "uint256"
        }
      ],
      "stateMutability": "view",
      "type": "function"
    },
    {
      "inputs": [
        {
          "internalType": "uint256",
          "name": "",
          "type": "uint256"
        },
        {
          "internalType": "address",
          "name": "",
          "type": "address"
        }
      ],
      "name": "postReactions",
      "outputs": [
        {
          "internalType": "bool",
          "name": "",
          "type": "bool"
        }
      ],
      "stateMutability": "view",
      "type": "function"
    },
    {
      "inputs": [
        {
          "internalType": "uint256",
          "name": "",
          "type": "uint256"
        }
      ],
      "name": "posts",
      "outputs": [
        {
          "internalType": "uint256",
          "name": "id",
          "type": "uint256"
        },
        {
          "internalType": "string",
          "name": "hash",
          "type": "string"
        },
        {
          "internalType": "uint256",
          "name": "tipAmount",
          "type": "uint256"
        },
        {
          "internalType": "address payable",
          "name": "author",
          "type": "address"
        },
        {
          "internalType": "bool",
          "name": "exists",
          "type": "bool"
        }
      ],
      "stateMutability": "view",
      "type": "function"
    },
    {
      "inputs": [
        {
          "internalType": "address",
          "name": "",
          "type": "address"
        }
      ],
      "name": "profiles",
      "outputs": [
        {
          "internalType": "uint256",
          "name": "",
          "type": "uint256"
        }
      ],
      "stateMutability": "view",
      "type": "function"
    },
    {
      "inputs": [
        {
          "internalType": "uint256",
          "name": "",
          "type": "uint256"
        }
      ],
      "name": "reactionCounts",
      "outputs": [
        {
          "internalType": "uint256",
          "name": "",
          "type": "uint256"
        }
      ],
      "stateMutability": "view",
      "type": "function"
    },
    {
      "inputs": [
        {
          "internalType": "address",
          "name": "from",
          "type": "address"
        },
        {
          "internalType": "address",
          "name": "to",
          "type": "address"
        },
        {
          "internalType": "uint256",
          "name": "tokenId",
          "type": "uint256"
        }
      ],
      "name": "safeTransferFrom",
      "outputs": [],
      "stateMutability": "nonpayable",
      "type": "function"
    },
    {
      "inputs": [
        {
          "internalType": "address",
          "name": "from",
          "type": "address"
        },
        {
          "internalType": "address",
          "name": "to",
          "type": "address"
        },
        {
          "internalType": "uint256",
          "name": "tokenId",
          "type": "uint256"
        },
        {
          "internalType": "bytes",
          "name": "_data",
          "type": "bytes"
        }
      ],
      "name": "safeTransferFrom",
      "outputs": [],
      "stateMutability": "nonpayable",
      "type": "function"
    },
    {
      "inputs": [
        {
          "internalType": "address",
          "name": "operator",
          "type": "address"
        },
        {
          "internalType": "bool",
          "name": "approved",
          "type": "bool"
        }
      ],
      "name": "setApprovalForAll",
      "outputs": [],
      "stateMutability": "nonpayable",
      "type": "function"
    },
    {
      "inputs": [
        {
          "internalType": "uint256",
          "name": "_id",
          "type": "uint256"
        }
      ],
      "name": "setProfile",
      "outputs": [],
      "stateMutability": "nonpayable",
      "type": "function"
    },
    {
      "inputs": [
        {
          "internalType": "bytes4",
          "name": "interfaceId",
          "type": "bytes4"
        }
      ],
      "name": "supportsInterface",
      "outputs": [
        {
          "internalType": "bool",
          "name": "",
          "type": "bool"
        }
      ],
      "stateMutability": "view",
      "type": "function"
    },
    {
      "inputs": [],
      "name": "symbol",
      "outputs": [
        {
          "internalType": "string",
          "name": "",
          "type": "string"
        }
      ],
      "stateMutability": "view",
      "type": "function"
    },
    {
      "inputs": [
        {
          "internalType": "uint256",
          "name": "_id",
          "type": "uint256"
        }
      ],
      "name": "tipPostOwner",
      "outputs": [],
      "stateMutability": "payable",
      "type": "function"
    },
    {
      "inputs": [
        {
          "internalType": "uint256",
          "name": "_id",
          "type": "uint256"
        }
      ],
      "name": "toggleReaction",
      "outputs": [],
      "stateMutability": "nonpayable",
      "type": "function"
    },
    {
      "inputs": [],
      "name": "tokenCount",
      "outputs": [
        {
          "internalType": "uint256",
          "name": "",
          "type": "uint256"
        }
      ],
      "stateMutability": "view",
      "type": "function"
    },
    {
      "inputs": [
        {
          "internalType": "uint256",
          "name": "tokenId",
          "type": "uint256"
        }
      ],
      "name": "tokenURI",
      "outputs": [
        {
          "internalType": "string",
          "name": "",
          "type": "string"
        }
      ],
      "stateMutability": "view",
      "type": "function"
    },
    {
      "inputs": [
        {
          "internalType": "address",
          "name": "from",
          "type": "address"
        },
        {
          "internalType": "address",
          "name": "to",
          "type": "address"
        },
        {
          "internalType": "uint256",
          "name": "tokenId",
          "type": "uint256"
        }
      ],
      "name": "transferFrom",
      "outputs": [],
      "stateMutability": "nonpayable",
      "type": "function"
    },
    {
      "inputs": [
        {
          "internalType": "string",
          "name": "_postHash",
          "type": "string"
        }
      ],
      "name": "uploadPost",
      "outputs": [],
      "stateMutability": "nonpayable",
      "type": "function"
    }
  ],
  "bytecode": "0x60806040523480156200001157600080fd5b50604080518082018252600f81526e2232b1b2b73a3930ba3bb4ba3a32b960891b6020808301918252835180850190945260048452630444150560e41b908401528151919291620000659160009162000084565b5080516200007b90600190602084019062000084565b50505062000167565b82805462000092906200012a565b90600052602060002090601f016020900481019282620000b6576000855562000101565b82601f10620000d157805160ff191683800117855562000101565b8280016001018555821562000101579182015b8281111562000101578251825591602001919060010190620000e4565b506200010f92915062000113565b5090565b5b808211156200010f576000815560010162000114565b600181811c908216806200013f57607f821691505b602082108114156200016157634e487b7160e01b600052602260045260246000fd5b50919050565b6140f780620001776000396000f3fe60806040526004361061020f5760003560e01c80639da3066711610118578063c6d9a474116100a0578063ddd3fd0a1161006f578063ddd3fd0a14610686578063e985e9c5146106a6578063fa561152146106ef578063fa99654a1461070f578063fc6c776f1461072f57600080fd5b8063c6d9a47414610606578063c87b56dd14610633578063d6313c0614610653578063d85d3d271461066657600080fd5b8063b2d0aca3116100e7578063b2d0aca31461053e578063b88d4fde1461055e578063bbe156271461057e578063bdd05adb146105ab578063c1ac58c4146105cb57600080fd5b80639da30667146104bb5780639f181b5e146104e8578063a22cb465146104fe578063aa7e56831461051e57600080fd5b806323edf6971161019b57806342842e0e1161016a57806342842e0e146104265780636352211e1461044657806370a082311461046657806385d3cb371461048657806395d89b41146104a657600080fd5b806323edf6971461037c5780632f85b732146103a957806330561100146103e457806331a4bcb51461040657600080fd5b8063094cd5ee116101e2578063094cd5ee146102c5578063095ea7b3146102e75780630b1e7f831461030757806317906c2e1461033857806323b872dd1461035c57600080fd5b806301ffc9a714610214578063047b07bf1461024957806306fdde031461026b578063081812fc1461028d575b600080fd5b34801561022057600080fd5b5061023461022f3660046139bd565b61075f565b60405190151581526020015b60405180910390f35b34801561025557600080fd5b5061025e6107b1565b6040516102409190613cd2565b34801561027757600080fd5b50610280610899565b6040516102409190613d16565b34801561029957600080fd5b506102ad6102a8366004613a28565b61092b565b6040516001600160a01b039091168152602001610240565b3480156102d157600080fd5b506102e56102e0366004613a28565b6109b8565b005b3480156102f357600080fd5b506102e5610302366004613994565b610c09565b34801561031357600080fd5b50610327610322366004613a28565b610d1f565b604051610240959493929190613ef9565b34801561034457600080fd5b5061034e60085481565b604051908152602001610240565b34801561036857600080fd5b506102e56103773660046138a6565b610de5565b34801561038857600080fd5b5061039c610397366004613a28565b610e16565b6040516102409190613bae565b3480156103b557600080fd5b506102346103c4366004613aa7565b600d60209081526000928352604080842090915290825290205460ff1681565b3480156103f057600080fd5b506103f96111b0565b6040516102409190613c41565b34801561041257600080fd5b506102e5610421366004613aa7565b611401565b34801561043257600080fd5b506102e56104413660046138a6565b6117c1565b34801561045257600080fd5b506102ad610461366004613a28565b6117dc565b34801561047257600080fd5b5061034e61048136600461385a565b611853565b34801561049257600080fd5b506102e56104a1366004613a28565b6118da565b3480156104b257600080fd5b50610280611968565b3480156104c757600080fd5b5061034e6104d6366004613a28565b600f6020526000908152604090205481565b3480156104f457600080fd5b5061034e60075481565b34801561050a57600080fd5b506102e561051936600461395a565b611977565b34801561052a57600080fd5b506102e5610539366004613a62565b611986565b34801561054a57600080fd5b50610234610559366004613a40565b611c58565b34801561056a57600080fd5b506102e56105793660046138e1565b611dc4565b34801561058a57600080fd5b5061034e61059936600461385a565b600a6020526000908152604090205481565b3480156105b757600080fd5b506102e56105c63660046139f5565b611dfc565b3480156105d757600080fd5b506102346105e6366004613a40565b600e60209081526000928352604080842090915290825290205460ff1681565b34801561061257600080fd5b5061034e610621366004613a28565b600c6020526000908152604090205481565b34801561063f57600080fd5b5061028061064e366004613a28565b611f78565b6102e5610661366004613a28565b6120ef565b34801561067257600080fd5b5061034e6106813660046139f5565b61238f565b34801561069257600080fd5b506102e56106a1366004613a28565b6123d0565b3480156106b257600080fd5b506102346106c1366004613874565b6001600160a01b03918216600090815260056020908152604080832093909416825291909152205460ff1690565b3480156106fb57600080fd5b506102e561070a366004613ac8565b6126b5565b34801561071b57600080fd5b506102e561072a366004613a62565b612ac0565b34801561073b57600080fd5b5061074f61074a366004613aa7565b612d31565b6040516102409493929190613e8a565b60006001600160e01b031982166380ac58cd60e01b148061079057506001600160e01b03198216635b5e139f60e01b145b806107ab57506301ffc9a760e01b6001600160e01b03198316145b92915050565b60606107bc33611853565b67ffffffffffffffff8111156107e257634e487b7160e01b600052604160045260246000fd5b60405190808252806020026020018201604052801561080b578160200160208202803683370190505b50600754909150600090815b81811015610893573361082e610461836001613f76565b6001600160a01b0316141561088157610848816001613f76565b84848151811061086857634e487b7160e01b600052603260045260246000fd5b60209081029190910101528261087d81614037565b9350505b8061088b81614037565b915050610817565b50505090565b6060600080546108a890613ffc565b80601f01602080910402602001604051908101604052809291908181526020018280546108d490613ffc565b80156109215780601f106108f657610100808354040283529160200191610921565b820191906000526020600020905b81548152906001019060200180831161090457829003601f168201915b5050505050905090565b600061093682612df7565b61099c5760405162461bcd60e51b815260206004820152602c60248201527f4552433732313a20617070726f76656420717565727920666f72206e6f6e657860448201526b34b9ba32b73a103a37b5b2b760a11b60648201526084015b60405180910390fd5b506000908152600460205260409020546001600160a01b031690565b6000811180156109ca57506008548111155b6109e65760405162461bcd60e51b815260040161099390613d7b565b6000600960008381526020019081526020016000206040518060a001604052908160008201548152602001600182018054610a2090613ffc565b80601f0160208091040260200160405190810160405280929190818152602001828054610a4c90613ffc565b8015610a995780601f10610a6e57610100808354040283529160200191610a99565b820191906000526020600020905b815481529060010190602001808311610a7c57829003601f168201915b5050509183525050600282015460208201526003909101546001600160a01b0381166040830152600160a01b900460ff1615156060909101526080810151909150610af65760405162461bcd60e51b815260040161099390613da4565b60608101516001600160a01b03163314610b525760405162461bcd60e51b815260206004820152601b60248201527f4f6e6c7920706f737420617574686f722063616e2064656c65746500000000006044820152606401610993565b600060808201819052828152600960209081526040909120825181558183015180518493610b87926001850192910190613710565b5060408281015160028301556060830151600390920180546080909401511515600160a01b026001600160a81b03199094166001600160a01b039093169290921792909217905580518381523360208201527f1da4a15b15417b54b8b3bea2ca87cfc4c94f0fee7d86702d0dab9e2906e7a7d391015b60405180910390a15050565b6000610c14826117dc565b9050806001600160a01b0316836001600160a01b03161415610c825760405162461bcd60e51b815260206004820152602160248201527f4552433732313a20617070726f76616c20746f2063757272656e74206f776e656044820152603960f91b6064820152608401610993565b336001600160a01b0382161480610c9e5750610c9e81336106c1565b610d105760405162461bcd60e51b815260206004820152603860248201527f4552433732313a20617070726f76652063616c6c6572206973206e6f74206f7760448201527f6e6572206e6f7220617070726f76656420666f7220616c6c00000000000000006064820152608401610993565b610d1a8383612e14565b505050565b60096020526000908152604090208054600182018054919291610d4190613ffc565b80601f0160208091040260200160405190810160405280929190818152602001828054610d6d90613ffc565b8015610dba5780601f10610d8f57610100808354040283529160200191610dba565b820191906000526020600020905b815481529060010190602001808311610d9d57829003601f168201915b5050505060028301546003909301549192916001600160a01b0381169150600160a01b900460ff1685565b610def3382612e82565b610e0b5760405162461bcd60e51b815260040161099390613e08565b610d1a838383612f68565b6060600082118015610e2a57506008548211155b610e465760405162461bcd60e51b815260040161099390613d7b565b6000600960008481526020019081526020016000206040518060a001604052908160008201548152602001600182018054610e8090613ffc565b80601f0160208091040260200160405190810160405280929190818152602001828054610eac90613ffc565b8015610ef95780601f10610ece57610100808354040283529160200191610ef9565b820191906000526020600020905b815481529060010190602001808311610edc57829003601f168201915b5050509183525050600282015460208201526003909101546001600160a01b0381166040830152600160a01b900460ff1615156060909101526080810151909150610f565760405162461bcd60e51b815260040161099390613da4565b600060015b6000858152600c60205260409020548111610fb2576000858152600d6020908152604080832084845290915290205460ff1615610fa05781610f9c81614037565b9250505b80610faa81614037565b915050610f5b565b508067ffffffffffffffff811115610fda57634e487b7160e01b600052604160045260246000fd5b60405190808252806020026020018201604052801561103f57816020015b61102c6040518060800160405280600081526020016060815260200160006001600160a01b03168152602001600081525090565b815260200190600190039081610ff85790505b509250600060015b6000868152600c602052604090205481116111a7576000868152600d6020908152604080832084845290915290205460ff1615611195576000868152600b602090815260408083208484528252918290208251608081019093528054835260018101805491928401916110b990613ffc565b80601f01602080910402602001604051908101604052809291908181526020018280546110e590613ffc565b80156111325780601f1061110757610100808354040283529160200191611132565b820191906000526020600020905b81548152906001019060200180831161111557829003601f168201915b505050918352505060028201546001600160a01b03166020820152600390910154604090910152855186908490811061117b57634e487b7160e01b600052603260045260246000fd5b6020026020010181905250818061119190614037565b9250505b8061119f81614037565b915050611047565b50505050919050565b6060600060015b600854811161120157600081815260096020526040902060030154600160a01b900460ff16156111ef57816111eb81614037565b9250505b806111f981614037565b9150506111b7565b508067ffffffffffffffff81111561122957634e487b7160e01b600052604160045260246000fd5b60405190808252806020026020018201604052801561129757816020015b6112846040518060a0016040528060008152602001606081526020016000815260200160006001600160a01b031681526020016000151581525090565b8152602001906001900390816112475790505b509150600060015b600854811161089357600081815260096020526040902060030154600160a01b900460ff16156113ef57600960008281526020019081526020016000206040518060a00160405290816000820154815260200160018201805461130190613ffc565b80601f016020809104026020016040519081016040528092919081815260200182805461132d90613ffc565b801561137a5780601f1061134f5761010080835404028352916020019161137a565b820191906000526020600020905b81548152906001019060200180831161135d57829003601f168201915b5050509183525050600282015460208201526003909101546001600160a01b0381166040830152600160a01b900460ff16151560609091015284518590849081106113d557634e487b7160e01b600052603260045260246000fd5b602002602001018190525081806113eb90614037565b9250505b806113f981614037565b91505061129f565b60008211801561141357506008548211155b61142f5760405162461bcd60e51b815260040161099390613d7b565b60008111801561144d57506000828152600c60205260409020548111155b61148e5760405162461bcd60e51b8152602060048201526012602482015271125b9d985b1a590818dbdb5b595b9d081a5960721b6044820152606401610993565b6000600960008481526020019081526020016000206040518060a0016040529081600082015481526020016001820180546114c890613ffc565b80601f01602080910402602001604051908101604052809291908181526020018280546114f490613ffc565b80156115415780601f1061151657610100808354040283529160200191611541565b820191906000526020600020905b81548152906001019060200180831161152457829003601f168201915b5050509183525050600282015460208201526003909101546001600160a01b0381166040830152600160a01b900460ff161515606090910152608081015190915061159e5760405162461bcd60e51b815260040161099390613da4565b6000838152600d6020908152604080832085845290915290205460ff166116195760405162461bcd60e51b815260206004820152602960248201527f436f6d6d656e7420646f6573206e6f74206578697374206f7220616c726561646044820152681e4819195b195d195960ba1b6064820152608401610993565b6000838152600b60209081526040808320858452825280832081516080810190925280548252600181018054929391929184019161165690613ffc565b80601f016020809104026020016040519081016040528092919081815260200182805461168290613ffc565b80156116cf5780601f106116a4576101008083540402835291602001916116cf565b820191906000526020600020905b8154815290600101906020018083116116b257829003601f168201915b505050918352505060028201546001600160a01b0390811660208301526003909201546040918201528201519192501633146117585760405162461bcd60e51b815260206004820152602260248201527f4f6e6c792074686520636f6d6d656e7420617574686f722063616e2064656c65604482015261746560f01b6064820152608401610993565b6000848152600d60209081526040808320868452825291829020805460ff19169055815186815290810185905233918101919091527f6ee692db105027f6f2626ec7348b1fee62bdd8b6aa9c2999ceed2aebd4dc3ee9906060015b60405180910390a150505050565b610d1a83838360405180602001604052806000815250611dc4565b6000818152600260205260408120546001600160a01b0316806107ab5760405162461bcd60e51b815260206004820152602960248201527f4552433732313a206f776e657220717565727920666f72206e6f6e657869737460448201526832b73a103a37b5b2b760b91b6064820152608401610993565b60006001600160a01b0382166118be5760405162461bcd60e51b815260206004820152602a60248201527f4552433732313a2062616c616e636520717565727920666f7220746865207a65604482015269726f206164647265737360b01b6064820152608401610993565b506001600160a01b031660009081526003602052604090205490565b336118e4826117dc565b6001600160a01b0316146119565760405162461bcd60e51b815260206004820152603360248201527f4d757374206f776e20746865206e667420796f752077616e7420746f2073656c60448201527265637420617320796f75722070726f66696c6560681b6064820152608401610993565b336000908152600a6020526040902055565b6060600180546108a890613ffc565b611982338383613104565b5050565b60008211801561199857506008548211155b6119b45760405162461bcd60e51b815260040161099390613d7b565b60006119bf33611853565b11611a1e5760405162461bcd60e51b815260206004820152602960248201527f4d757374206f776e206120646563656e74726174776974746572206e667420746044820152681bc818dbdb5b595b9d60ba1b6064820152608401610993565b6000815111611a3f5760405162461bcd60e51b815260040161099390613dd1565b6000600960008481526020019081526020016000206040518060a001604052908160008201548152602001600182018054611a7990613ffc565b80601f0160208091040260200160405190810160405280929190818152602001828054611aa590613ffc565b8015611af25780601f10611ac757610100808354040283529160200191611af2565b820191906000526020600020905b815481529060010190602001808311611ad557829003601f168201915b5050509183525050600282015460208201526003909101546001600160a01b0381166040830152600160a01b900460ff1615156060909101526080810151909150611b4f5760405162461bcd60e51b815260040161099390613da4565b6000838152600c60205260408120805491611b6983614037565b90915550506000838152600c602090815260408083205481516080810183528181528084018781523382850152426060830152888652600b85528386208387528552929094208451815591518051919493611bcc92600185019290910190613710565b506040828101516002830180546001600160a01b0319166001600160a01b039092169190911790556060909201516003909101556000858152600d60209081528282208483529052819020805460ff19166001179055517ff1f868ee5254a279592f96ca98448515dc899b0eb055fca0a1da86fd90de77bd906117b39086908490879033904290613f3a565b60008083118015611c6b57506008548311155b611c875760405162461bcd60e51b815260040161099390613d7b565b6000600960008581526020019081526020016000206040518060a001604052908160008201548152602001600182018054611cc190613ffc565b80601f0160208091040260200160405190810160405280929190818152602001828054611ced90613ffc565b8015611d3a5780601f10611d0f57610100808354040283529160200191611d3a565b820191906000526020600020905b815481529060010190602001808311611d1d57829003601f168201915b5050509183525050600282015460208201526003909101546001600160a01b0381166040830152600160a01b900460ff1615156060909101526080810151909150611d975760405162461bcd60e51b815260040161099390613da4565b50506000918252600e602090815260408084206001600160a01b0393909316845291905290205460ff1690565b611dce3383612e82565b611dea5760405162461bcd60e51b815260040161099390613e08565b611df6848484846131d3565b50505050565b6000611e0733611853565b11611e635760405162461bcd60e51b815260206004820152602660248201527f4d757374206f776e206120646563656e74726174776974746572206e667420746044820152651bc81c1bdcdd60d21b6064820152608401610993565b6000815111611e845760405162461bcd60e51b815260040161099390613dd1565b60088054906000611e9483614037565b90915550506040805160a0810182526008548082526020808301858152600084860181905233606086015260016080860181905293815260098352949094208351815593518051939493611eef938501929190910190613710565b5060408281015160028301556060830151600390920180546080909401511515600160a01b026001600160a81b03199094166001600160a01b039093169290921792909217905560085490517fc66336337a24e513f909b3b25119854dba8385d51307dbc7d31d1b2805e19c7e91611f6d9184906000903390613ebf565b60405180910390a150565b6060611f8382612df7565b611fe95760405162461bcd60e51b815260206004820152603160248201527f45524337323155524953746f726167653a2055524920717565727920666f72206044820152703737b732bc34b9ba32b73a103a37b5b2b760791b6064820152608401610993565b6000828152600660205260408120805461200290613ffc565b80601f016020809104026020016040519081016040528092919081815260200182805461202e90613ffc565b801561207b5780601f106120505761010080835404028352916020019161207b565b820191906000526020600020905b81548152906001019060200180831161205e57829003601f168201915b50505050509050600061209960408051602081019091526000815290565b90508051600014156120ac575092915050565b8151156120de5780826040516020016120c6929190613b42565b60405160208183030381529060405292505050919050565b6120e784613206565b949350505050565b60008111801561210157506008548111155b61211d5760405162461bcd60e51b815260040161099390613d7b565b6000600960008381526020019081526020016000206040518060a00160405290816000820154815260200160018201805461215790613ffc565b80601f016020809104026020016040519081016040528092919081815260200182805461218390613ffc565b80156121d05780601f106121a5576101008083540402835291602001916121d0565b820191906000526020600020905b8154815290600101906020018083116121b357829003601f168201915b5050509183525050600282015460208201526003909101546001600160a01b0381166040830152600160a01b900460ff161515606090910152608081015190915061222d5760405162461bcd60e51b815260040161099390613da4565b60608101516001600160a01b031633141561228a5760405162461bcd60e51b815260206004820152601860248201527f43616e6e6f742074697020796f7572206f776e20706f737400000000000000006044820152606401610993565b60608101516040516001600160a01b03909116903480156108fc02916000818181858888f193505050501580156122c5573d6000803e3d6000fd5b5034816040018181516122d89190613f76565b9052506000828152600960209081526040909120825181558183015180518493612309926001850192910190613710565b506040828101516002830155606080840151600390930180546080909501511515600160a01b026001600160a81b03199095166001600160a01b0390941693909317939093179091556020830151838201519284015191517f20988fe475351e75813672abada1dddb7ac67cbbeb81e61e1160b8329d8cdf1c93610bfd93879392613ebf565b60078054600091826123a083614037565b91905055506123b1336007546132de565b6123bd600754836132f8565b6123c86007546118da565b505060075490565b6000811180156123e257506008548111155b6123fe5760405162461bcd60e51b815260040161099390613d7b565b600061240933611853565b116124665760405162461bcd60e51b815260206004820152602760248201527f4d757374206f776e206120646563656e74726174776974746572206e667420746044820152661bc81c995858dd60ca1b6064820152608401610993565b6000600960008381526020019081526020016000206040518060a0016040529081600082015481526020016001820180546124a090613ffc565b80601f01602080910402602001604051908101604052809291908181526020018280546124cc90613ffc565b80156125195780601f106124ee57610100808354040283529160200191612519565b820191906000526020600020905b8154815290600101906020018083116124fc57829003601f168201915b5050509183525050600282015460208201526003909101546001600160a01b0381166040830152600160a01b900460ff16151560609091015260808101519091506125765760405162461bcd60e51b815260040161099390613da4565b6000828152600e6020908152604080832033845290915290205460ff1615612625576000828152600e602090815260408083203384528252808320805460ff19169055848352600f90915281208054916125cf83613fe5565b90915550506000828152600f60209081526040918290205482518581523392810192909252918101919091527fb6740d9568e420d02d2b6f51f45014f89940368fc3ac47e7e9933d52990dc80390606001610bfd565b6000828152600e602090815260408083203384528252808320805460ff19166001179055848352600f909152812080549161265f83614037565b90915550506000828152600f60209081526040918290205482518581523392810192909252918101919091527f067eaa1bc58cab486335628198f3fa676fd1e9720e6482423ee85f5651b4e1c390606001610bfd565b6000831180156126c757506008548311155b6126e35760405162461bcd60e51b815260040161099390613d7b565b60008211801561270157506000838152600c60205260409020548211155b6127425760405162461bcd60e51b8152602060048201526012602482015271125b9d985b1a590818dbdb5b595b9d081a5960721b6044820152606401610993565b6000600960008581526020019081526020016000206040518060a00160405290816000820154815260200160018201805461277c90613ffc565b80601f01602080910402602001604051908101604052809291908181526020018280546127a890613ffc565b80156127f55780601f106127ca576101008083540402835291602001916127f5565b820191906000526020600020905b8154815290600101906020018083116127d857829003601f168201915b5050509183525050600282015460208201526003909101546001600160a01b0381166040830152600160a01b900460ff16151560609091015260808101519091506128525760405162461bcd60e51b815260040161099390613da4565b6000848152600d6020908152604080832086845290915290205460ff166128b45760405162461bcd60e51b815260206004820152601660248201527510dbdb5b595b9d08191bd95cc81b9bdd08195e1a5cdd60521b6044820152606401610993565b6000848152600b6020908152604080832086845282528083208151608081019092528054825260018101805492939192918401916128f190613ffc565b80601f016020809104026020016040519081016040528092919081815260200182805461291d90613ffc565b801561296a5780601f1061293f5761010080835404028352916020019161296a565b820191906000526020600020905b81548152906001019060200180831161294d57829003601f168201915b505050918352505060028201546001600160a01b0390811660208301526003909201546040918201528201519192501633146129e85760405162461bcd60e51b815260206004820181905260248201527f4f6e6c792074686520636f6d6d656e7420617574686f722063616e20656469746044820152606401610993565b6000835111612a095760405162461bcd60e51b815260040161099390613dd1565b60208082018481524260608401526000878152600b835260408082208883528452902083518155905180518493612a47926001850192910190613710565b506040828101516002830180546001600160a01b0319166001600160a01b03909216919091179055606090920151600390910155517ff486e8ca2d84598f8ee0f7e6718d5b5463cbbd918e6a3fb75d9f0d47941603e890612ab19087908790879033904290613f3a565b60405180910390a15050505050565b600082118015612ad257506008548211155b612aee5760405162461bcd60e51b815260040161099390613d7b565b6000815111612b0f5760405162461bcd60e51b815260040161099390613dd1565b6000600960008481526020019081526020016000206040518060a001604052908160008201548152602001600182018054612b4990613ffc565b80601f0160208091040260200160405190810160405280929190818152602001828054612b7590613ffc565b8015612bc25780601f10612b9757610100808354040283529160200191612bc2565b820191906000526020600020905b815481529060010190602001808311612ba557829003601f168201915b5050509183525050600282015460208201526003909101546001600160a01b0381166040830152600160a01b900460ff1615156060909101526080810151909150612c1f5760405162461bcd60e51b815260040161099390613da4565b60608101516001600160a01b03163314612c7b5760405162461bcd60e51b815260206004820152601960248201527f4f6e6c7920706f737420617574686f722063616e2065646974000000000000006044820152606401610993565b60208082018381526000858152600983526040902083518155905180518493612cab926001850192910190613710565b5060408281015160028301556060830151600390920180546080909401511515600160a01b026001600160a81b03199094166001600160a01b0390931692909217929092179055517f14010afed372a560fdba37ec703ee439247f73b29b515ef3359fc95bc30567ff90612d2490859085903390613e59565b60405180910390a1505050565b600b60209081526000928352604080842090915290825290208054600182018054919291612d5e90613ffc565b80601f0160208091040260200160405190810160405280929190818152602001828054612d8a90613ffc565b8015612dd75780601f10612dac57610100808354040283529160200191612dd7565b820191906000526020600020905b815481529060010190602001808311612dba57829003601f168201915b50505050600283015460039093015491926001600160a01b031691905084565b6000908152600260205260409020546001600160a01b0316151590565b600081815260046020526040902080546001600160a01b0319166001600160a01b0384169081179091558190612e49826117dc565b6001600160a01b03167f8c5be1e5ebec7d5bd14f71427d1e84f3dd0314c0f7b2291e5b200ac8c7c3b92560405160405180910390a45050565b6000612e8d82612df7565b612eee5760405162461bcd60e51b815260206004820152602c60248201527f4552433732313a206f70657261746f7220717565727920666f72206e6f6e657860448201526b34b9ba32b73a103a37b5b2b760a11b6064820152608401610993565b6000612ef9836117dc565b9050806001600160a01b0316846001600160a01b03161480612f345750836001600160a01b0316612f298461092b565b6001600160a01b0316145b806120e757506001600160a01b0380821660009081526005602090815260408083209388168352929052205460ff166120e7565b826001600160a01b0316612f7b826117dc565b6001600160a01b031614612fdf5760405162461bcd60e51b815260206004820152602560248201527f4552433732313a207472616e736665722066726f6d20696e636f72726563742060448201526437bbb732b960d91b6064820152608401610993565b6001600160a01b0382166130415760405162461bcd60e51b8152602060048201526024808201527f4552433732313a207472616e7366657220746f20746865207a65726f206164646044820152637265737360e01b6064820152608401610993565b61304c600082612e14565b6001600160a01b0383166000908152600360205260408120805460019290613075908490613fa2565b90915550506001600160a01b03821660009081526003602052604081208054600192906130a3908490613f76565b909155505060008181526002602052604080822080546001600160a01b0319166001600160a01b0386811691821790925591518493918716917fddf252ad1be2c89b69c2b068fc378daa952ba7f163c4a11628f55a4df523b3ef91a4505050565b816001600160a01b0316836001600160a01b031614156131665760405162461bcd60e51b815260206004820152601960248201527f4552433732313a20617070726f766520746f2063616c6c6572000000000000006044820152606401610993565b6001600160a01b03838116600081815260056020908152604080832094871680845294825291829020805460ff191686151590811790915591519182527f17307eab39ab6107e8899845ad3d59bd9653f200f220920489ca2b5937696c31910160405180910390a3505050565b6131de848484612f68565b6131ea84848484613383565b611df65760405162461bcd60e51b815260040161099390613d29565b606061321182612df7565b6132755760405162461bcd60e51b815260206004820152602f60248201527f4552433732314d657461646174613a2055524920717565727920666f72206e6f60448201526e3732bc34b9ba32b73a103a37b5b2b760891b6064820152608401610993565b600061328c60408051602081019091526000815290565b905060008151116132ac57604051806020016040528060008152506132d7565b806132b684613490565b6040516020016132c7929190613b42565b6040516020818303038152906040525b9392505050565b6119828282604051806020016040528060008152506135aa565b61330182612df7565b6133645760405162461bcd60e51b815260206004820152602e60248201527f45524337323155524953746f726167653a2055524920736574206f66206e6f6e60448201526d32bc34b9ba32b73a103a37b5b2b760911b6064820152608401610993565b60008281526006602090815260409091208251610d1a92840190613710565b60006001600160a01b0384163b1561348557604051630a85bd0160e11b81526001600160a01b0385169063150b7a02906133c7903390899088908890600401613b71565b602060405180830381600087803b1580156133e157600080fd5b505af1925050508015613411575060408051601f3d908101601f1916820190925261340e918101906139d9565b60015b61346b573d80801561343f576040519150601f19603f3d011682016040523d82523d6000602084013e613444565b606091505b5080516134635760405162461bcd60e51b815260040161099390613d29565b805181602001fd5b6001600160e01b031916630a85bd0160e11b1490506120e7565b506001949350505050565b6060816134b45750506040805180820190915260018152600360fc1b602082015290565b8160005b81156134de57806134c881614037565b91506134d79050600a83613f8e565b91506134b8565b60008167ffffffffffffffff81111561350757634e487b7160e01b600052604160045260246000fd5b6040519080825280601f01601f191660200182016040528015613531576020820181803683370190505b5090505b84156120e757613546600183613fa2565b9150613553600a86614052565b61355e906030613f76565b60f81b81838151811061358157634e487b7160e01b600052603260045260246000fd5b60200101906001600160f81b031916908160001a9053506135a3600a86613f8e565b9450613535565b6135b483836135dd565b6135c16000848484613383565b610d1a5760405162461bcd60e51b815260040161099390613d29565b6001600160a01b0382166136335760405162461bcd60e51b815260206004820181905260248201527f4552433732313a206d696e7420746f20746865207a65726f20616464726573736044820152606401610993565b61363c81612df7565b156136895760405162461bcd60e51b815260206004820152601c60248201527f4552433732313a20746f6b656e20616c7265616479206d696e746564000000006044820152606401610993565b6001600160a01b03821660009081526003602052604081208054600192906136b2908490613f76565b909155505060008181526002602052604080822080546001600160a01b0319166001600160a01b03861690811790915590518392907fddf252ad1be2c89b69c2b068fc378daa952ba7f163c4a11628f55a4df523b3ef908290a45050565b82805461371c90613ffc565b90600052602060002090601f01602090048101928261373e5760008555613784565b82601f1061375757805160ff1916838001178555613784565b82800160010185558215613784579182015b82811115613784578251825591602001919060010190613769565b50613790929150613794565b5090565b5b808211156137905760008155600101613795565b600067ffffffffffffffff808411156137c4576137c4614092565b604051601f8501601f19908116603f011681019082821181831017156137ec576137ec614092565b8160405280935085815286868601111561380557600080fd5b858560208301376000602087830101525050509392505050565b80356001600160a01b038116811461383657600080fd5b919050565b600082601f83011261384b578081fd5b6132d7838335602085016137a9565b60006020828403121561386b578081fd5b6132d78261381f565b60008060408385031215613886578081fd5b61388f8361381f565b915061389d6020840161381f565b90509250929050565b6000806000606084860312156138ba578081fd5b6138c38461381f565b92506138d16020850161381f565b9150604084013590509250925092565b600080600080608085870312156138f6578081fd5b6138ff8561381f565b935061390d6020860161381f565b925060408501359150606085013567ffffffffffffffff81111561392f578182fd5b8501601f8101871361393f578182fd5b61394e878235602084016137a9565b91505092959194509250565b6000806040838503121561396c578182fd5b6139758361381f565b915060208301358015158114613989578182fd5b809150509250929050565b600080604083850312156139a6578182fd5b6139af8361381f565b946020939093013593505050565b6000602082840312156139ce578081fd5b81356132d7816140a8565b6000602082840312156139ea578081fd5b81516132d7816140a8565b600060208284031215613a06578081fd5b813567ffffffffffffffff811115613a1c578182fd5b6120e78482850161383b565b600060208284031215613a39578081fd5b5035919050565b60008060408385031215613a52578182fd5b8235915061389d6020840161381f565b60008060408385031215613a74578182fd5b82359150602083013567ffffffffffffffff811115613a91578182fd5b613a9d8582860161383b565b9150509250929050565b60008060408385031215613ab9578182fd5b50508035926020909101359150565b600080600060608486031215613adc578283fd5b8335925060208401359150604084013567ffffffffffffffff811115613b00578182fd5b613b0c8682870161383b565b9150509250925092565b60008151808452613b2e816020860160208601613fb9565b601f01601f19169290920160200192915050565b60008351613b54818460208801613fb9565b835190830190613b68818360208801613fb9565b01949350505050565b6001600160a01b0385811682528416602082015260408101839052608060608201819052600090613ba490830184613b16565b9695505050505050565b60006020808301818452808551808352604092508286019150828160051b870101848801865b83811015613c3357603f19898403018552815160808151855288820151818a870152613c0282870182613b16565b838a01516001600160a01b0316878b0152606093840151939096019290925250509386019390860190600101613bd4565b509098975050505050505050565b60006020808301818452808551808352604092508286019150828160051b870101848801865b83811015613c3357603f19898403018552815160a08151855288820151818a870152613c9582870182613b16565b838a0151878b01526060808501516001600160a01b0316908801526080938401511515939096019290925250509386019390860190600101613c67565b6020808252825182820181905260009190848201906040850190845b81811015613d0a57835183529284019291840191600101613cee565b50909695505050505050565b6020815260006132d76020830184613b16565b60208082526032908201527f4552433732313a207472616e7366657220746f206e6f6e20455243373231526560408201527131b2b4bb32b91034b6b83632b6b2b73a32b960711b606082015260800190565b6020808252600f908201526e125b9d985b1a59081c1bdcdd081a59608a1b604082015260600190565b602080825260139082015272141bdcdd08191bd95cc81b9bdd08195e1a5cdd606a1b604082015260600190565b60208082526019908201527f43616e6e6f74207061737320616e20656d707479206861736800000000000000604082015260600190565b60208082526031908201527f4552433732313a207472616e736665722063616c6c6572206973206e6f74206f6040820152701ddb995c881b9bdc88185c1c1c9bdd9959607a1b606082015260800190565b838152606060208201526000613e726060830185613b16565b905060018060a01b0383166040830152949350505050565b848152608060208201526000613ea36080830186613b16565b6001600160a01b03949094166040830152506060015292915050565b848152608060208201526000613ed86080830186613b16565b6040830194909452506001600160a01b039190911660609091015292915050565b85815260a060208201526000613f1260a0830187613b16565b6040830195909552506001600160a01b03929092166060830152151560809091015292915050565b85815284602082015260a060408201526000613f5960a0830186613b16565b6001600160a01b0394909416606083015250608001529392505050565b60008219821115613f8957613f89614066565b500190565b600082613f9d57613f9d61407c565b500490565b600082821015613fb457613fb4614066565b500390565b60005b83811015613fd4578181015183820152602001613fbc565b83811115611df65750506000910152565b600081613ff457613ff4614066565b506000190190565b600181811c9082168061401057607f821691505b6020821081141561403157634e487b7160e01b600052602260045260246000fd5b50919050565b600060001982141561404b5761404b614066565b5060010190565b6000826140615761406161407c565b500690565b634e487b7160e01b600052601160045260246000fd5b634e487b7160e01b600052601260045260246000fd5b634e487b7160e01b600052604160045260246000fd5b6001600160e01b0319811681146140be57600080fd5b5056fea264697066735822122047ce82bacf0cc3d138ee0049507d602cb0e8f77143e0371f2e9707c2b991fd4c64736f6c63430008040033",
  "linkReferences": {},
  "deployedLinkReferences": {}
}